{
	"data": {
		"bytecode": {
			"linkReferences": {},
			"object": "6080604052600160125534801561001557600080fd5b5060408051808201825260098152680506f776572737761760bc1b6020918201528151808301835260018152603160f81b9082015281517f8b73c3c69bb8fe3d512ecc4cf759cc79239f7b179b0ffacaa9a75d522b39400f818301527f7482259f0814e28e280a45b2dc7a998cd8fe48ae2d827c76344d48681a2f571c818401527fc89efdaa54c0f20c7adf612882df0950f5a951637e0307cdcb4c672f298b8bc660608201524660808201523060a0808301919091528351808303909101815260c09091019092528151910120600355600580546001600160a01b03191633179055612e93806101076000396000f3fe608060405234801561001057600080fd5b50600436106101ef5760003560e01c806370a082311161010f578063bc25cf77116100a2578063d505accf11610071578063d505accf146104ad578063dd62ed3e146104c0578063f637b632146104eb578063fff6cae91461050c57600080fd5b8063bc25cf7714610469578063bd9a548b1461047c578063c45a015514610487578063d21220a71461049a57600080fd5b806389afcb44116100de57806389afcb441461040157806395d89b4114610429578063a9059cbb1461044d578063ba9a7a561461046057600080fd5b806370a08231146103a5578063734ffd15146103c55780637464fc3d146103d85780637ecebe00146103e157600080fd5b806330adf81f116101875780635909c0d5116101565780635909c0d5146103785780635a3d5493146103815780636431b81a1461038a5780636a6278421461039257600080fd5b806330adf81f1461031b578063313ce567146103425780633644e5151461035c578063485cc9551461036557600080fd5b8063095ea7b3116101c3578063095ea7b3146102a35780630dfe1681146102c657806318160ddd146102f157806323b872dd1461030857600080fd5b8062113e08146101f4578063022c0d9f1461022557806306fdde031461023a5780630902f1ac1461026f575b600080fd5b600954600a54600b54600c546040805194855260208501939093529183015260608201526080015b60405180910390f35b610238610233366004612b7c565b610514565b005b610262604051806040016040528060098152602001680506f776572737761760bc1b81525081565b60405161021c9190612c7a565b610277610ba3565b604080516001600160701b03948516815293909216602084015263ffffffff169082015260600161021c565b6102b66102b1366004612af1565b610bcd565b604051901515815260200161021c565b6006546102d9906001600160a01b031681565b6040516001600160a01b03909116815260200161021c565b6102fa60005481565b60405190815260200161021c565b6102b6610316366004612a39565b610be4565b6102fa7f6e71edae12b1b97f4d1f60370fef10105fa2faae0126114a169c64845d6126c981565b61034a601281565b60405160ff909116815260200161021c565b6102fa60035481565b610238610373366004612a00565b610c78565b6102fa600f5481565b6102fa60105481565b610238610cfe565b6102fa6103a03660046129c6565b610dae565b6102fa6103b33660046129c6565b60016020526000908152604090205481565b6102386103d3366004612b3f565b6110ec565b6102fa60115481565b6102fa6103ef3660046129c6565b60046020526000908152604090205481565b61041461040f3660046129c6565b6111dd565b6040805192835260208301919091520161021c565b610262604051806040016040528060058152602001642827aba2a960d91b81525081565b6102b661045b366004612af1565b6115f2565b6102fa6103e881565b6102386104773660046129c6565b6115ff565b600d54600e54610414565b6005546102d9906001600160a01b031681565b6007546102d9906001600160a01b031681565b6102386104bb366004612a7a565b611722565b6102fa6104ce366004612a00565b600260209081526000928352604080842090915290825290205481565b600754600160a01b900461ffff1660405161ffff909116815260200161021c565b610238611936565b60125460011461053f5760405162461bcd60e51b815260040161053690612cf1565b60405180910390fd5b6000601255841515806105525750600084115b6105ac5760405162461bcd60e51b815260206004820152602560248201527f506f776572737761703a20494e53554646494349454e545f4f55545055545f416044820152641353d5539560da1b6064820152608401610536565b6000806105b7610ba3565b5091509150816001600160701b0316871080156105dc5750806001600160701b031686105b6106325760405162461bcd60e51b815260206004820152602160248201527f506f776572737761703a20494e53554646494349454e545f4c495155494449546044820152605960f81b6064820152608401610536565b61063a610cfe565b60065460075460009182916001600160a01b039182169190811690891682148015906106785750806001600160a01b0316896001600160a01b031614155b6106bc5760405162461bcd60e51b8152602060048201526015602482015274506f776572737761703a20494e56414c49445f544f60581b6044820152606401610536565b8a156106cd576106cd828a8d611a78565b89156106de576106de818a8c611a78565b861561074b576040516380686bc960e01b81526001600160a01b038a16906380686bc9906107189033908f908f908e908e90600401612c2e565b600060405180830381600087803b15801561073257600080fd5b505af1158015610746573d6000803e3d6000fd5b505050505b6040516370a0823160e01b81523060048201526001600160a01b038316906370a082319060240160206040518083038186803b15801561078a57600080fd5b505afa15801561079e573d6000803e3d6000fd5b505050506040513d601f19601f820116820180604052508101906107c29190612b63565b6040516370a0823160e01b81523060048201529094506001600160a01b038216906370a082319060240160206040518083038186803b15801561080457600080fd5b505afa158015610818573d6000803e3d6000fd5b505050506040513d601f19601f8201168201806040525081019061083c9190612b63565b92505050600089856001600160701b03166108579190612d8a565b8311610864576000610881565b6108778a6001600160701b038716612d8a565b6108819084612d8a565b905060006108988a6001600160701b038716612d8a565b83116108a55760006108c2565b6108b88a6001600160701b038716612d8a565b6108c29084612d8a565b90506108f66040518060a0016040528060008152602001600081526020016000815260200160008152602001600081525090565b6103e8610905846103e5611bc3565b61090f9190612d34565b8c1115610a17578a6103e8610926846103e5611bc3565b6109309190612d34565b1161094d5760405162461bcd60e51b815260040161053690612cad565b600c548152600b5460208201528a6103e86109756103e561096f866001611c2a565b90611bc3565b61097f9190612d34565b6109899190612d8a565b60408201526103e861099d846103e5611bc3565b6109a79190612d34565b6109b1908d612d8a565b6060820152600e5460808201526007546109d7908290600160a01b900461ffff16611c7f565b610a125760405162461bcd60e51b815260206004820152600c60248201526b506f776572737761703a204b60a01b6044820152606401610536565b610b2d565b6103e8610a26836103e5611bc3565b610a309190612d34565b8b1115610b2d578b6103e8610a47856103e5611bc3565b610a519190612d34565b11610a6e5760405162461bcd60e51b815260040161053690612cad565b6009548152600a5460208201528b6103e8610a906103e561096f876001611c2a565b610a9a9190612d34565b610aa49190612d8a565b60408201526103e8610ab8836103e5611bc3565b610ac29190612d34565b610acc908c612d8a565b6060820152600d546080820152600754610af2908290600160a01b900461ffff16611c7f565b610b2d5760405162461bcd60e51b815260206004820152600c60248201526b506f776572737761703a204b60a01b6044820152606401610536565b50610b3c82828d8d8888611d5d565b60408051838152602081018390529081018c9052606081018b90526001600160a01b038a169033907fd78ad95fa46c994b6551d0da85fc275fe613ce37657fb8d5e3d130840159d8229060800160405180910390a350506001601255505050505050505050565b6008546001600160701b0380821692600160701b830490911691600160e01b900463ffffffff1690565b6000610bda338484611f41565b5060015b92915050565b6001600160a01b038316600090815260026020908152604080832033845290915281205460001914610c63576001600160a01b0384166000908152600260209081526040808320338452909152902054610c3e9083611fa3565b6001600160a01b03851660009081526002602090815260408083203384529091529020555b610c6e848484611ff9565b5060019392505050565b6005546001600160a01b03163314610cc95760405162461bcd60e51b81526020600482015260146024820152732837bbb2b939bbb0b81d102327a92124a22222a760611b6044820152606401610536565b600680546001600160a01b039384166001600160a01b0319909116179055600780546001600160b01b03191691909216179055565b6000610d0f64010000000042612e05565b600854909150600090610d2f90600160e01b900463ffffffff1683612da1565b6008549091506001600160701b0380821691600160701b90041663ffffffff831615801590610d6657506001600160701b03821615155b8015610d7a57506001600160701b03811615155b15610da857610d8a82828561209f565b600880546001600160e01b0316600160e01b63ffffffff8716021790555b50505050565b6000601254600114610dd25760405162461bcd60e51b815260040161053690612cf1565b6000601281905580610de2610ba3565b506006546040516370a0823160e01b81523060048201529294509092506000916001600160a01b03909116906370a082319060240160206040518083038186803b158015610e2f57600080fd5b505afa158015610e43573d6000803e3d6000fd5b505050506040513d601f19601f82011682018060405250810190610e679190612b63565b6007546040516370a0823160e01b81523060048201529192506000916001600160a01b03909116906370a082319060240160206040518083038186803b158015610eb057600080fd5b505afa158015610ec4573d6000803e3d6000fd5b505050506040513d601f19601f82011682018060405250810190610ee89190612b63565b90506000610eff836001600160701b038716611fa3565b90506000610f16836001600160701b038716611fa3565b90506000610f248787612200565b60005490915080610f6b57610f4d6103e8610f47610f428787611bc3565b6124e6565b90611fa3565b9850610f5c60006103e8612556565b610f6686866125e5565b610fed565b610f7786868a8a61272a565b610fea610fa3610f88866004611bc3565b610f9d6001600160701b038c16612710611bc3565b90611c2a565b610fb361264861096f8589611bc3565b610fbd9190612d34565b610fcb610f88866004611bc3565b610fdb61264861096f8689611bc3565b610fe59190612d34565b612924565b98505b6000891161104e5760405162461bcd60e51b815260206004820152602860248201527f506f776572737761703a20494e53554646494349454e545f4c495155494449546044820152671657d3525395115160c21b6064820152608401610536565b6110588a8a612556565b811561109e57600e5461109a9061107e90607090611076908a611bc3565b88911c611c2a565b600d5461096f90607090611092908a611bc3565b8a911c611c2a565b6011555b604080518581526020810185905233917f4c209b5fc8ad50758f13e2e1088ba56a560dff690a1c6fef26394f4c03821c4f910160405180910390a25050600160125550949695505050505050565b60055460408051632d36dcd960e01b815290516000926001600160a01b031691632d36dcd9916004808301926020929190829003018186803b15801561113157600080fd5b505afa158015611145573d6000803e3d6000fd5b505050506040513d601f19601f8201168201806040525081019061116991906129e3565b9050336001600160a01b038216146111ba5760405162461bcd60e51b81526020600482015260146024820152732837bbb2b939bbb0b81d102327a92124a22222a760611b6044820152606401610536565b506007805461ffff909216600160a01b0261ffff60a01b19909216919091179055565b6000806012546001146112025760405162461bcd60e51b815260040161053690612cf1565b6000601281905580611212610ba3565b506006546007546040516370a0823160e01b81523060048201529395509193506001600160a01b039081169291169060009083906370a082319060240160206040518083038186803b15801561126757600080fd5b505afa15801561127b573d6000803e3d6000fd5b505050506040513d601f19601f8201168201806040525081019061129f9190612b63565b6040516370a0823160e01b81523060048201529091506000906001600160a01b038416906370a082319060240160206040518083038186803b1580156112e457600080fd5b505afa1580156112f8573d6000803e3d6000fd5b505050506040513d601f19601f8201168201806040525081019061131c9190612b63565b306000908152600160205260408120549192506113398888612200565b6000805491925061135961134e856002611bc3565b610f47846064611bc3565b9050600061137c600186611372606261096f8880611bc3565b610f9d9190612d34565b9050806113898884611bc3565b6113939190612d34565b9c50806113a08784611bc3565b6113aa9190612d34565b9b5060008d1180156113bc575060008c115b6114195760405162461bcd60e51b815260206004820152602860248201527f506f776572737761703a20494e53554646494349454e545f4c495155494449546044820152671657d0955493915160c21b6064820152608401610536565b611423308661293c565b61142e898f8f611a78565b611439888f8e611a78565b6006546040516370a0823160e01b81523060048201526001600160a01b03909116906370a082319060240160206040518083038186803b15801561147c57600080fd5b505afa158015611490573d6000803e3d6000fd5b505050506040513d601f19601f820116820180604052508101906114b49190612b63565b6007546040516370a0823160e01b81523060048201529198506001600160a01b0316906370a082319060240160206040518083038186803b1580156114f857600080fd5b505afa15801561150c573d6000803e3d6000fd5b505050506040513d601f19601f820116820180604052508101906115309190612b63565b955061153e87878d8d61272a565b831561158457600e54611580906115649060709061155c908b611bc3565b89911c611c2a565b600d5461096f90607090611578908b611bc3565b8b911c611c2a565b6011555b8d6001600160a01b0316336001600160a01b03167fdccd412f0b1252819cb1fd330b93224ca42612892bb3f4f789976e6d819364968f8f6040516115d2929190918252602082015260400190565b60405180910390a350505050505050505050506001601281905550915091565b6000610bda338484611ff9565b6012546001146116215760405162461bcd60e51b815260040161053690612cf1565b60006012556006546007546008546040516370a0823160e01b81523060048201526001600160a01b0393841693909216916116cb91849186916116c6916001600160701b039091169084906370a08231906024015b60206040518083038186803b15801561168e57600080fd5b505afa1580156116a2573d6000803e3d6000fd5b505050506040513d601f19601f82011682018060405250810190610f479190612b63565b611a78565b6008546040516370a0823160e01b815230600482015261171891839186916116c691600160701b9091046001600160701b0316906001600160a01b038516906370a0823190602401611676565b5050600160125550565b428410156117675760405162461bcd60e51b8152602060048201526012602482015271141bddd95c9cddd85c0e881156141254915160721b6044820152606401610536565b6003546001600160a01b038816600090815260046020526040812080549192917f6e71edae12b1b97f4d1f60370fef10105fa2faae0126114a169c64845d6126c9918b918b918b9190876117ba83612dea565b909155506040805160208101969096526001600160a01b0394851690860152929091166060840152608083015260a082015260c0810187905260e0016040516020818303038152906040528051906020012060405160200161183392919061190160f01b81526002810192909252602282015260420190565b60408051601f198184030181528282528051602091820120600080855291840180845281905260ff88169284019290925260608301869052608083018590529092509060019060a0016020604051602081039080840390855afa15801561189e573d6000803e3d6000fd5b5050604051601f1901519150506001600160a01b038116158015906118d45750886001600160a01b0316816001600160a01b0316145b6119205760405162461bcd60e51b815260206004820152601c60248201527f506f776572737761703a20494e56414c49445f5349474e4154555245000000006044820152606401610536565b61192b898989611f41565b505050505050505050565b6012546001146119585760405162461bcd60e51b815260040161053690612cf1565b60006012556006546040516370a0823160e01b8152306004820152611a71916001600160a01b0316906370a082319060240160206040518083038186803b1580156119a257600080fd5b505afa1580156119b6573d6000803e3d6000fd5b505050506040513d601f19601f820116820180604052508101906119da9190612b63565b6007546040516370a0823160e01b81523060048201526001600160a01b03909116906370a082319060240160206040518083038186803b158015611a1d57600080fd5b505afa158015611a31573d6000803e3d6000fd5b505050506040513d601f19601f82011682018060405250810190611a559190612b63565b6008546001600160701b0380821691600160701b90041661272a565b6001601255565b604080518082018252601981527f7472616e7366657228616464726573732c75696e74323536290000000000000060209182015281516001600160a01b0385811660248301526044808301869052845180840390910181526064909201845291810180516001600160e01b031663a9059cbb60e01b17905291516000928392871691611b049190612c12565b6000604051808303816000865af19150503d8060008114611b41576040519150601f19603f3d011682016040523d82523d6000602084013e611b46565b606091505b5091509150818015611b70575080511580611b70575080806020019051810190611b709190612b1d565b611bbc5760405162461bcd60e51b815260206004820152601a60248201527f506f776572737761703a205452414e534645525f4641494c45440000000000006044820152606401610536565b5050505050565b6000811580611be757508282611bd98183612d48565b9250611be59083612d34565b145b610bde5760405162461bcd60e51b815260206004820152601460248201527364732d6d6174682d6d756c2d6f766572666c6f7760601b6044820152606401610536565b600082611c378382612d1c565b9150811015610bde5760405162461bcd60e51b815260206004820152601460248201527364732d6d6174682d6164642d6f766572666c6f7760601b6044820152606401610536565b81516000908190611cb090611c969061ffff611bc3565b610f9d611ca58661ffff612d8a565b604088015190611bc3565b84516040860151611cc89161ffff9161096f91611bc3565b611cd29190612d34565b90506000611d1c611cf0611ce88661ffff612d8a565b875190611bc3565b610f9d86607060ff16611d148a602001518b60800151611bc390919063ffffffff16565b901c90611bc3565b611d3961ffff61096f886020015186611bc390919063ffffffff16565b611d439190612d34565b905084606001518110611d5557600192505b505092915050565b836103e8611d6d886103e5611bc3565b611d779190612d34565b118015611d9c57506103e8611d8e866103e5611bc3565b611d989190612d34565b8310155b15611df957611dab8487612d8a565b60096000828254611dbc9190612d1c565b9250508190555084600a6000828254611dd59190612d1c565b9250508190555082600a6000828254611dee9190612d8a565b90915550611ecb9050565b826103e8611e09876103e5611bc3565b611e139190612d34565b118015611e3857506103e8611e2a876103e5611bc3565b611e349190612d34565b8410155b15611e895785600b6000828254611e4f9190612d1c565b9250508190555083600b6000828254611e689190612d8a565b90915550611e7890508386612d8a565b600c6000828254611dee9190612d1c565b611e938487612d8a565b60096000828254611ea49190612d1c565b90915550611eb490508386612d8a565b600c6000828254611ec59190612d1c565b90915550505b600880546001600160701b03838116600160701b9081026001600160e01b0319909316868316179290921792839055604080518483168152929093041660208201527f1c411e9a96e071241c2f21f7726b17ae89e3cab4c78be50e062b03a9fffbbad191015b60405180910390a1505050505050565b6001600160a01b0383811660008181526002602090815260408083209487168084529482529182902085905590518481527f8c5be1e5ebec7d5bd14f71427d1e84f3dd0314c0f7b2291e5b200ac8c7c3b92591015b60405180910390a3505050565b600082611fb08382612d8a565b9150811115610bde5760405162461bcd60e51b815260206004820152601560248201527464732d6d6174682d7375622d756e646572666c6f7760581b6044820152606401610536565b6001600160a01b03831660009081526001602052604090205461201c9082611fa3565b6001600160a01b03808516600090815260016020526040808220939093559084168152205461204b9082611c2a565b6001600160a01b0380841660008181526001602052604090819020939093559151908516907fddf252ad1be2c89b69c2b068fc378daa952ba7f163c4a11628f55a4df523b3ef90611f969085815260200190565b6001600160701b038084166009819055908316600a819055600b91909155600c819055600d54600e546007549192909161ffff600160a01b9091048116916120e691611bc3565b61212e6121136120f88461ffff612d67565b600160701b600160e01b0360708b901b169061ffff16611bc3565b610f9d61ffff851661096f886001600160701b038c16611bc3565b6121389190612d34565b600d556121506001600160701b03871661ffff611bc3565b61219861217d6121628461ffff612d67565b600160701b600160e01b0360708a901b169061ffff16611bc3565b610f9d61ffff851661096f876001600160701b038d16611bc3565b6121a29190612d34565b600e8190556121b89063ffffffff861690612d48565b600f60008282546121c99190612d1c565b9091555050600d546121e29063ffffffff861690612d48565b601060008282546121f39190612d1c565b9091555050505050505050565b600080600560009054906101000a90046001600160a01b03166001600160a01b031663017e7e586040518163ffffffff1660e01b815260040160206040518083038186803b15801561225157600080fd5b505afa158015612265573d6000803e3d6000fd5b505050506040513d601f19601f8201168201806040525081019061228991906129e3565b6011546001600160a01b0382161580159450919250906124d35780156124ce5760006122ba64010000000042612e05565b6008549091506000906122da90600160e01b900463ffffffff1683612da1565b600d54600e549192509063ffffffff8316156123e65760075461ffff600160a01b909104811690612315906001600160701b038b1690611bc3565b6123666123426123278461ffff612d67565b600160701b600160e01b0360708f901b169061ffff16611bc3565b610f9d8461ffff1661096f8e6001600160701b031689611bc390919063ffffffff16565b6123709190612d34565b92506123876001600160701b038b1661ffff611bc3565b6123d86123b46123998461ffff612d67565b600160701b600160e01b0360708e901b169061ffff16611bc3565b610f9d8461ffff1661096f8f6001600160701b031688611bc390919063ffffffff16565b6123e29190612d34565b9150505b6000612461610f42612423607060ff166124128e6001600160701b031687611bc390919063ffffffff16565b6001600160701b038e16911c611c2a565b61096f607060ff166124478e6001600160701b031689611bc390919063ffffffff16565b901c8e6001600160701b0316611c2a90919063ffffffff16565b9050600061246e876124e6565b9050808211156124c75760006124906124878484611fa3565b60005490611bc3565b905060006124a383610f9d866005611bc3565b905060006124b18284612d34565b905080156124c3576124c38b82612556565b5050505b5050505050505b611d55565b8015611d55576000601155505092915050565b600060038211156125475750806000612500600283612d34565b61250b906001612d1c565b90505b81811015612541579050806002816125268186612d34565b6125309190612d1c565b61253a9190612d34565b905061250e565b50919050565b8115612551575060015b919050565b6000546125639082611c2a565b60009081556001600160a01b0383168152600160205260409020546125889082611c2a565b6001600160a01b0383166000818152600160205260408082209390935591519091907fddf252ad1be2c89b69c2b068fc378daa952ba7f163c4a11628f55a4df523b3ef906125d99085815260200190565b60405180910390a35050565b6001600160701b03821180159061260357506001600160701b038111155b6126455760405162461bcd60e51b8152602060048201526013602482015272506f776572737761703a204f564552464c4f5760681b6044820152606401610536565b600880546001600160701b03838116600160701b026001600160e01b0319909216908516171790556009829055600a819055600b829055600c81905561268f81607084901b612d34565b600d556126a082607083901b612d34565b600e556126b264010000000042612e05565b6008805463ffffffff92909216600160e01b026001600160e01b038316811791829055604080516001600160701b03928316948316949094178452600160701b9092041660208301527f1c411e9a96e071241c2f21f7726b17ae89e3cab4c78be50e062b03a9fffbbad1910160405180910390a15050565b6001600160701b03841180159061274857506001600160701b038311155b61278a5760405162461bcd60e51b8152602060048201526013602482015272506f776572737761703a204f564552464c4f5760681b6044820152606401610536565b600880546001600160701b03858116600160701b026001600160e01b03199092169087161717905560006127c364010000000042612e05565b6008549091506000906127e390600160e01b900463ffffffff1683612da1565b905060008163ffffffff1611801561280357506001600160701b03841615155b801561281757506001600160701b03831615155b1561285f5760085461283d906001600160701b0380821691600160701b9004168361209f565b600880546001600160e01b0316600160e01b63ffffffff8516021790556128d8565b600954600a54600b54600c546128826001600160701b038916610f47868d611c2a565b60095561289c6001600160701b038816610f47858c611c2a565b600a556128b66001600160701b038916610f47848d611c2a565b600b556128d06001600160701b038816610f47838c611c2a565b600c55505050505b600854604080516001600160701b038084168252600160701b90930490921660208301527f1c411e9a96e071241c2f21f7726b17ae89e3cab4c78be50e062b03a9fffbbad19101611f31565b60008183106129335781612935565b825b9392505050565b6001600160a01b03821660009081526001602052604090205461295f9082611fa3565b6001600160a01b038316600090815260016020526040812091909155546129869082611fa3565b60009081556040518281526001600160a01b038416907fddf252ad1be2c89b69c2b068fc378daa952ba7f163c4a11628f55a4df523b3ef906020016125d9565b6000602082840312156129d857600080fd5b813561293581612e45565b6000602082840312156129f557600080fd5b815161293581612e45565b60008060408385031215612a1357600080fd5b8235612a1e81612e45565b91506020830135612a2e81612e45565b809150509250929050565b600080600060608486031215612a4e57600080fd5b8335612a5981612e45565b92506020840135612a6981612e45565b929592945050506040919091013590565b600080600080600080600060e0888a031215612a9557600080fd5b8735612aa081612e45565b96506020880135612ab081612e45565b95506040880135945060608801359350608088013560ff81168114612ad457600080fd5b9699959850939692959460a0840135945060c09093013592915050565b60008060408385031215612b0457600080fd5b8235612b0f81612e45565b946020939093013593505050565b600060208284031215612b2f57600080fd5b8151801515811461293557600080fd5b600060208284031215612b5157600080fd5b813561ffff8116811461293557600080fd5b600060208284031215612b7557600080fd5b5051919050565b600080600080600060808688031215612b9457600080fd5b85359450602086013593506040860135612bad81612e45565b9250606086013567ffffffffffffffff80821115612bca57600080fd5b818801915088601f830112612bde57600080fd5b813581811115612bed57600080fd5b896020828501011115612bff57600080fd5b9699959850939650602001949392505050565b60008251612c24818460208701612dbe565b9190910192915050565b60018060a01b038616815284602082015283604082015260806060820152816080820152818360a0830137600081830160a090810191909152601f909201601f19160101949350505050565b6020815260008251806020840152612c99816040850160208701612dbe565b601f01601f19169190910160400192915050565b60208082526024908201527f506f776572737761703a20494e53554646494349454e545f494e5055545f414d60408201526313d5539560e21b606082015260800190565b602080825260119082015270141bddd95c9cddd85c0e881313d0d2d151607a1b604082015260600190565b60008219821115612d2f57612d2f612e19565b500190565b600082612d4357612d43612e2f565b500490565b6000816000190483118215151615612d6257612d62612e19565b500290565b600061ffff83811690831681811015612d8257612d82612e19565b039392505050565b600082821015612d9c57612d9c612e19565b500390565b600063ffffffff83811690831681811015612d8257612d82612e19565b60005b83811015612dd9578181015183820152602001612dc1565b83811115610da85750506000910152565b6000600019821415612dfe57612dfe612e19565b5060010190565b600082612e1457612e14612e2f565b500690565b634e487b7160e01b600052601160045260246000fd5b634e487b7160e01b600052601260045260246000fd5b6001600160a01b0381168114612e5a57600080fd5b5056fea26469706673582212203b270510c21956022e0b958461b063d77f721b72103b607e395bc61870fa7d1e64736f6c63430008060033",
			"opcodes": "PUSH1 0x80 PUSH1 0x40 MSTORE PUSH1 0x1 PUSH1 0x12 SSTORE CALLVALUE DUP1 ISZERO PUSH2 0x15 JUMPI PUSH1 0x0 DUP1 REVERT JUMPDEST POP PUSH1 0x40 DUP1 MLOAD DUP1 DUP3 ADD DUP3 MSTORE PUSH1 0x9 DUP2 MSTORE PUSH9 0x506F7765727377617 PUSH1 0xBC SHL PUSH1 0x20 SWAP2 DUP3 ADD MSTORE DUP2 MLOAD DUP1 DUP4 ADD DUP4 MSTORE PUSH1 0x1 DUP2 MSTORE PUSH1 0x31 PUSH1 0xF8 SHL SWAP1 DUP3 ADD MSTORE DUP2 MLOAD PUSH32 0x8B73C3C69BB8FE3D512ECC4CF759CC79239F7B179B0FFACAA9A75D522B39400F DUP2 DUP4 ADD MSTORE PUSH32 0x7482259F0814E28E280A45B2DC7A998CD8FE48AE2D827C76344D48681A2F571C DUP2 DUP5 ADD MSTORE PUSH32 0xC89EFDAA54C0F20C7ADF612882DF0950F5A951637E0307CDCB4C672F298B8BC6 PUSH1 0x60 DUP3 ADD MSTORE CHAINID PUSH1 0x80 DUP3 ADD MSTORE ADDRESS PUSH1 0xA0 DUP1 DUP4 ADD SWAP2 SWAP1 SWAP2 MSTORE DUP4 MLOAD DUP1 DUP4 SUB SWAP1 SWAP2 ADD DUP2 MSTORE PUSH1 0xC0 SWAP1 SWAP2 ADD SWAP1 SWAP3 MSTORE DUP2 MLOAD SWAP2 ADD KECCAK256 PUSH1 0x3 SSTORE PUSH1 0x5 DUP1 SLOAD PUSH1 0x1 PUSH1 0x1 PUSH1 0xA0 SHL SUB NOT AND CALLER OR SWAP1 SSTORE PUSH2 0x2E93 DUP1 PUSH2 0x107 PUSH1 0x0 CODECOPY PUSH1 0x0 RETURN INVALID PUSH1 0x80 PUSH1 0x40 MSTORE CALLVALUE DUP1 ISZERO PUSH2 0x10 JUMPI PUSH1 0x0 DUP1 REVERT JUMPDEST POP PUSH1 0x4 CALLDATASIZE LT PUSH2 0x1EF JUMPI PUSH1 0x0 CALLDATALOAD PUSH1 0xE0 SHR DUP1 PUSH4 0x70A08231 GT PUSH2 0x10F JUMPI DUP1 PUSH4 0xBC25CF77 GT PUSH2 0xA2 JUMPI DUP1 PUSH4 0xD505ACCF GT PUSH2 0x71 JUMPI DUP1 PUSH4 0xD505ACCF EQ PUSH2 0x4AD JUMPI DUP1 PUSH4 0xDD62ED3E EQ PUSH2 0x4C0 JUMPI DUP1 PUSH4 0xF637B632 EQ PUSH2 0x4EB JUMPI DUP1 PUSH4 0xFFF6CAE9 EQ PUSH2 0x50C JUMPI PUSH1 0x0 DUP1 REVERT JUMPDEST DUP1 PUSH4 0xBC25CF77 EQ PUSH2 0x469 JUMPI DUP1 PUSH4 0xBD9A548B EQ PUSH2 0x47C JUMPI DUP1 PUSH4 0xC45A0155 EQ PUSH2 0x487 JUMPI DUP1 PUSH4 0xD21220A7 EQ PUSH2 0x49A JUMPI PUSH1 0x0 DUP1 REVERT JUMPDEST DUP1 PUSH4 0x89AFCB44 GT PUSH2 0xDE JUMPI DUP1 PUSH4 0x89AFCB44 EQ PUSH2 0x401 JUMPI DUP1 PUSH4 0x95D89B41 EQ PUSH2 0x429 JUMPI DUP1 PUSH4 0xA9059CBB EQ PUSH2 0x44D JUMPI DUP1 PUSH4 0xBA9A7A56 EQ PUSH2 0x460 JUMPI PUSH1 0x0 DUP1 REVERT JUMPDEST DUP1 PUSH4 0x70A08231 EQ PUSH2 0x3A5 JUMPI DUP1 PUSH4 0x734FFD15 EQ PUSH2 0x3C5 JUMPI DUP1 PUSH4 0x7464FC3D EQ PUSH2 0x3D8 JUMPI DUP1 PUSH4 0x7ECEBE00 EQ PUSH2 0x3E1 JUMPI PUSH1 0x0 DUP1 REVERT JUMPDEST DUP1 PUSH4 0x30ADF81F GT PUSH2 0x187 JUMPI DUP1 PUSH4 0x5909C0D5 GT PUSH2 0x156 JUMPI DUP1 PUSH4 0x5909C0D5 EQ PUSH2 0x378 JUMPI DUP1 PUSH4 0x5A3D5493 EQ PUSH2 0x381 JUMPI DUP1 PUSH4 0x6431B81A EQ PUSH2 0x38A JUMPI DUP1 PUSH4 0x6A627842 EQ PUSH2 0x392 JUMPI PUSH1 0x0 DUP1 REVERT JUMPDEST DUP1 PUSH4 0x30ADF81F EQ PUSH2 0x31B JUMPI DUP1 PUSH4 0x313CE567 EQ PUSH2 0x342 JUMPI DUP1 PUSH4 0x3644E515 EQ PUSH2 0x35C JUMPI DUP1 PUSH4 0x485CC955 EQ PUSH2 0x365 JUMPI PUSH1 0x0 DUP1 REVERT JUMPDEST DUP1 PUSH4 0x95EA7B3 GT PUSH2 0x1C3 JUMPI DUP1 PUSH4 0x95EA7B3 EQ PUSH2 0x2A3 JUMPI DUP1 PUSH4 0xDFE1681 EQ PUSH2 0x2C6 JUMPI DUP1 PUSH4 0x18160DDD EQ PUSH2 0x2F1 JUMPI DUP1 PUSH4 0x23B872DD EQ PUSH2 0x308 JUMPI PUSH1 0x0 DUP1 REVERT JUMPDEST DUP1 PUSH3 0x113E08 EQ PUSH2 0x1F4 JUMPI DUP1 PUSH4 0x22C0D9F EQ PUSH2 0x225 JUMPI DUP1 PUSH4 0x6FDDE03 EQ PUSH2 0x23A JUMPI DUP1 PUSH4 0x902F1AC EQ PUSH2 0x26F JUMPI JUMPDEST PUSH1 0x0 DUP1 REVERT JUMPDEST PUSH1 0x9 SLOAD PUSH1 0xA SLOAD PUSH1 0xB SLOAD PUSH1 0xC SLOAD PUSH1 0x40 DUP1 MLOAD SWAP5 DUP6 MSTORE PUSH1 0x20 DUP6 ADD SWAP4 SWAP1 SWAP4 MSTORE SWAP2 DUP4 ADD MSTORE PUSH1 0x60 DUP3 ADD MSTORE PUSH1 0x80 ADD JUMPDEST PUSH1 0x40 MLOAD DUP1 SWAP2 SUB SWAP1 RETURN JUMPDEST PUSH2 0x238 PUSH2 0x233 CALLDATASIZE PUSH1 0x4 PUSH2 0x2B7C JUMP JUMPDEST PUSH2 0x514 JUMP JUMPDEST STOP JUMPDEST PUSH2 0x262 PUSH1 0x40 MLOAD DUP1 PUSH1 0x40 ADD PUSH1 0x40 MSTORE DUP1 PUSH1 0x9 DUP2 MSTORE PUSH1 0x20 ADD PUSH9 0x506F7765727377617 PUSH1 0xBC SHL DUP2 MSTORE POP DUP2 JUMP JUMPDEST PUSH1 0x40 MLOAD PUSH2 0x21C SWAP2 SWAP1 PUSH2 0x2C7A JUMP JUMPDEST PUSH2 0x277 PUSH2 0xBA3 JUMP JUMPDEST PUSH1 0x40 DUP1 MLOAD PUSH1 0x1 PUSH1 0x1 PUSH1 0x70 SHL SUB SWAP5 DUP6 AND DUP2 MSTORE SWAP4 SWAP1 SWAP3 AND PUSH1 0x20 DUP5 ADD MSTORE PUSH4 0xFFFFFFFF AND SWAP1 DUP3 ADD MSTORE PUSH1 0x60 ADD PUSH2 0x21C JUMP JUMPDEST PUSH2 0x2B6 PUSH2 0x2B1 CALLDATASIZE PUSH1 0x4 PUSH2 0x2AF1 JUMP JUMPDEST PUSH2 0xBCD JUMP JUMPDEST PUSH1 0x40 MLOAD SWAP1 ISZERO ISZERO DUP2 MSTORE PUSH1 0x20 ADD PUSH2 0x21C JUMP JUMPDEST PUSH1 0x6 SLOAD PUSH2 0x2D9 SWAP1 PUSH1 0x1 PUSH1 0x1 PUSH1 0xA0 SHL SUB AND DUP2 JUMP JUMPDEST PUSH1 0x40 MLOAD PUSH1 0x1 PUSH1 0x1 PUSH1 0xA0 SHL SUB SWAP1 SWAP2 AND DUP2 MSTORE PUSH1 0x20 ADD PUSH2 0x21C JUMP JUMPDEST PUSH2 0x2FA PUSH1 0x0 SLOAD DUP2 JUMP JUMPDEST PUSH1 0x40 MLOAD SWAP1 DUP2 MSTORE PUSH1 0x20 ADD PUSH2 0x21C JUMP JUMPDEST PUSH2 0x2B6 PUSH2 0x316 CALLDATASIZE PUSH1 0x4 PUSH2 0x2A39 JUMP JUMPDEST PUSH2 0xBE4 JUMP JUMPDEST PUSH2 0x2FA PUSH32 0x6E71EDAE12B1B97F4D1F60370FEF10105FA2FAAE0126114A169C64845D6126C9 DUP2 JUMP JUMPDEST PUSH2 0x34A PUSH1 0x12 DUP2 JUMP JUMPDEST PUSH1 0x40 MLOAD PUSH1 0xFF SWAP1 SWAP2 AND DUP2 MSTORE PUSH1 0x20 ADD PUSH2 0x21C JUMP JUMPDEST PUSH2 0x2FA PUSH1 0x3 SLOAD DUP2 JUMP JUMPDEST PUSH2 0x238 PUSH2 0x373 CALLDATASIZE PUSH1 0x4 PUSH2 0x2A00 JUMP JUMPDEST PUSH2 0xC78 JUMP JUMPDEST PUSH2 0x2FA PUSH1 0xF SLOAD DUP2 JUMP JUMPDEST PUSH2 0x2FA PUSH1 0x10 SLOAD DUP2 JUMP JUMPDEST PUSH2 0x238 PUSH2 0xCFE JUMP JUMPDEST PUSH2 0x2FA PUSH2 0x3A0 CALLDATASIZE PUSH1 0x4 PUSH2 0x29C6 JUMP JUMPDEST PUSH2 0xDAE JUMP JUMPDEST PUSH2 0x2FA PUSH2 0x3B3 CALLDATASIZE PUSH1 0x4 PUSH2 0x29C6 JUMP JUMPDEST PUSH1 0x1 PUSH1 0x20 MSTORE PUSH1 0x0 SWAP1 DUP2 MSTORE PUSH1 0x40 SWAP1 KECCAK256 SLOAD DUP2 JUMP JUMPDEST PUSH2 0x238 PUSH2 0x3D3 CALLDATASIZE PUSH1 0x4 PUSH2 0x2B3F JUMP JUMPDEST PUSH2 0x10EC JUMP JUMPDEST PUSH2 0x2FA PUSH1 0x11 SLOAD DUP2 JUMP JUMPDEST PUSH2 0x2FA PUSH2 0x3EF CALLDATASIZE PUSH1 0x4 PUSH2 0x29C6 JUMP JUMPDEST PUSH1 0x4 PUSH1 0x20 MSTORE PUSH1 0x0 SWAP1 DUP2 MSTORE PUSH1 0x40 SWAP1 KECCAK256 SLOAD DUP2 JUMP JUMPDEST PUSH2 0x414 PUSH2 0x40F CALLDATASIZE PUSH1 0x4 PUSH2 0x29C6 JUMP JUMPDEST PUSH2 0x11DD JUMP JUMPDEST PUSH1 0x40 DUP1 MLOAD SWAP3 DUP4 MSTORE PUSH1 0x20 DUP4 ADD SWAP2 SWAP1 SWAP2 MSTORE ADD PUSH2 0x21C JUMP JUMPDEST PUSH2 0x262 PUSH1 0x40 MLOAD DUP1 PUSH1 0x40 ADD PUSH1 0x40 MSTORE DUP1 PUSH1 0x5 DUP2 MSTORE PUSH1 0x20 ADD PUSH5 0x2827ABA2A9 PUSH1 0xD9 SHL DUP2 MSTORE POP DUP2 JUMP JUMPDEST PUSH2 0x2B6 PUSH2 0x45B CALLDATASIZE PUSH1 0x4 PUSH2 0x2AF1 JUMP JUMPDEST PUSH2 0x15F2 JUMP JUMPDEST PUSH2 0x2FA PUSH2 0x3E8 DUP2 JUMP JUMPDEST PUSH2 0x238 PUSH2 0x477 CALLDATASIZE PUSH1 0x4 PUSH2 0x29C6 JUMP JUMPDEST PUSH2 0x15FF JUMP JUMPDEST PUSH1 0xD SLOAD PUSH1 0xE SLOAD PUSH2 0x414 JUMP JUMPDEST PUSH1 0x5 SLOAD PUSH2 0x2D9 SWAP1 PUSH1 0x1 PUSH1 0x1 PUSH1 0xA0 SHL SUB AND DUP2 JUMP JUMPDEST PUSH1 0x7 SLOAD PUSH2 0x2D9 SWAP1 PUSH1 0x1 PUSH1 0x1 PUSH1 0xA0 SHL SUB AND DUP2 JUMP JUMPDEST PUSH2 0x238 PUSH2 0x4BB CALLDATASIZE PUSH1 0x4 PUSH2 0x2A7A JUMP JUMPDEST PUSH2 0x1722 JUMP JUMPDEST PUSH2 0x2FA PUSH2 0x4CE CALLDATASIZE PUSH1 0x4 PUSH2 0x2A00 JUMP JUMPDEST PUSH1 0x2 PUSH1 0x20 SWAP1 DUP2 MSTORE PUSH1 0x0 SWAP3 DUP4 MSTORE PUSH1 0x40 DUP1 DUP5 KECCAK256 SWAP1 SWAP2 MSTORE SWAP1 DUP3 MSTORE SWAP1 KECCAK256 SLOAD DUP2 JUMP JUMPDEST PUSH1 0x7 SLOAD PUSH1 0x1 PUSH1 0xA0 SHL SWAP1 DIV PUSH2 0xFFFF AND PUSH1 0x40 MLOAD PUSH2 0xFFFF SWAP1 SWAP2 AND DUP2 MSTORE PUSH1 0x20 ADD PUSH2 0x21C JUMP JUMPDEST PUSH2 0x238 PUSH2 0x1936 JUMP JUMPDEST PUSH1 0x12 SLOAD PUSH1 0x1 EQ PUSH2 0x53F JUMPI PUSH1 0x40 MLOAD PUSH3 0x461BCD PUSH1 0xE5 SHL DUP2 MSTORE PUSH1 0x4 ADD PUSH2 0x536 SWAP1 PUSH2 0x2CF1 JUMP JUMPDEST PUSH1 0x40 MLOAD DUP1 SWAP2 SUB SWAP1 REVERT JUMPDEST PUSH1 0x0 PUSH1 0x12 SSTORE DUP5 ISZERO ISZERO DUP1 PUSH2 0x552 JUMPI POP PUSH1 0x0 DUP5 GT JUMPDEST PUSH2 0x5AC JUMPI PUSH1 0x40 MLOAD PUSH3 0x461BCD PUSH1 0xE5 SHL DUP2 MSTORE PUSH1 0x20 PUSH1 0x4 DUP3 ADD MSTORE PUSH1 0x25 PUSH1 0x24 DUP3 ADD MSTORE PUSH32 0x506F776572737761703A20494E53554646494349454E545F4F55545055545F41 PUSH1 0x44 DUP3 ADD MSTORE PUSH5 0x1353D55395 PUSH1 0xDA SHL PUSH1 0x64 DUP3 ADD MSTORE PUSH1 0x84 ADD PUSH2 0x536 JUMP JUMPDEST PUSH1 0x0 DUP1 PUSH2 0x5B7 PUSH2 0xBA3 JUMP JUMPDEST POP SWAP2 POP SWAP2 POP DUP2 PUSH1 0x1 PUSH1 0x1 PUSH1 0x70 SHL SUB AND DUP8 LT DUP1 ISZERO PUSH2 0x5DC JUMPI POP DUP1 PUSH1 0x1 PUSH1 0x1 PUSH1 0x70 SHL SUB AND DUP7 LT JUMPDEST PUSH2 0x632 JUMPI PUSH1 0x40 MLOAD PUSH3 0x461BCD PUSH1 0xE5 SHL DUP2 MSTORE PUSH1 0x20 PUSH1 0x4 DUP3 ADD MSTORE PUSH1 0x21 PUSH1 0x24 DUP3 ADD MSTORE PUSH32 0x506F776572737761703A20494E53554646494349454E545F4C49515549444954 PUSH1 0x44 DUP3 ADD MSTORE PUSH1 0x59 PUSH1 0xF8 SHL PUSH1 0x64 DUP3 ADD MSTORE PUSH1 0x84 ADD PUSH2 0x536 JUMP JUMPDEST PUSH2 0x63A PUSH2 0xCFE JUMP JUMPDEST PUSH1 0x6 SLOAD PUSH1 0x7 SLOAD PUSH1 0x0 SWAP2 DUP3 SWAP2 PUSH1 0x1 PUSH1 0x1 PUSH1 0xA0 SHL SUB SWAP2 DUP3 AND SWAP2 SWAP1 DUP2 AND SWAP1 DUP10 AND DUP3 EQ DUP1 ISZERO SWAP1 PUSH2 0x678 JUMPI POP DUP1 PUSH1 0x1 PUSH1 0x1 PUSH1 0xA0 SHL SUB AND DUP10 PUSH1 0x1 PUSH1 0x1 PUSH1 0xA0 SHL SUB AND EQ ISZERO JUMPDEST PUSH2 0x6BC JUMPI PUSH1 0x40 MLOAD PUSH3 0x461BCD PUSH1 0xE5 SHL DUP2 MSTORE PUSH1 0x20 PUSH1 0x4 DUP3 ADD MSTORE PUSH1 0x15 PUSH1 0x24 DUP3 ADD MSTORE PUSH21 0x506F776572737761703A20494E56414C49445F544F PUSH1 0x58 SHL PUSH1 0x44 DUP3 ADD MSTORE PUSH1 0x64 ADD PUSH2 0x536 JUMP JUMPDEST DUP11 ISZERO PUSH2 0x6CD JUMPI PUSH2 0x6CD DUP3 DUP11 DUP14 PUSH2 0x1A78 JUMP JUMPDEST DUP10 ISZERO PUSH2 0x6DE JUMPI PUSH2 0x6DE DUP2 DUP11 DUP13 PUSH2 0x1A78 JUMP JUMPDEST DUP7 ISZERO PUSH2 0x74B JUMPI PUSH1 0x40 MLOAD PUSH4 0x80686BC9 PUSH1 0xE0 SHL DUP2 MSTORE PUSH1 0x1 PUSH1 0x1 PUSH1 0xA0 SHL SUB DUP11 AND SWAP1 PUSH4 0x80686BC9 SWAP1 PUSH2 0x718 SWAP1 CALLER SWAP1 DUP16 SWAP1 DUP16 SWAP1 DUP15 SWAP1 DUP15 SWAP1 PUSH1 0x4 ADD PUSH2 0x2C2E JUMP JUMPDEST PUSH1 0x0 PUSH1 0x40 MLOAD DUP1 DUP4 SUB DUP2 PUSH1 0x0 DUP8 DUP1 EXTCODESIZE ISZERO DUP1 ISZERO PUSH2 0x732 JUMPI PUSH1 0x0 DUP1 REVERT JUMPDEST POP GAS CALL ISZERO DUP1 ISZERO PUSH2 0x746 JUMPI RETURNDATASIZE PUSH1 0x0 DUP1 RETURNDATACOPY RETURNDATASIZE PUSH1 0x0 REVERT JUMPDEST POP POP POP POP JUMPDEST PUSH1 0x40 MLOAD PUSH4 0x70A08231 PUSH1 0xE0 SHL DUP2 MSTORE ADDRESS PUSH1 0x4 DUP3 ADD MSTORE PUSH1 0x1 PUSH1 0x1 PUSH1 0xA0 SHL SUB DUP4 AND SWAP1 PUSH4 0x70A08231 SWAP1 PUSH1 0x24 ADD PUSH1 0x20 PUSH1 0x40 MLOAD DUP1 DUP4 SUB DUP2 DUP7 DUP1 EXTCODESIZE ISZERO DUP1 ISZERO PUSH2 0x78A JUMPI PUSH1 0x0 DUP1 REVERT JUMPDEST POP GAS STATICCALL ISZERO DUP1 ISZERO PUSH2 0x79E JUMPI RETURNDATASIZE PUSH1 0x0 DUP1 RETURNDATACOPY RETURNDATASIZE PUSH1 0x0 REVERT JUMPDEST POP POP POP POP PUSH1 0x40 MLOAD RETURNDATASIZE PUSH1 0x1F NOT PUSH1 0x1F DUP3 ADD AND DUP3 ADD DUP1 PUSH1 0x40 MSTORE POP DUP2 ADD SWAP1 PUSH2 0x7C2 SWAP2 SWAP1 PUSH2 0x2B63 JUMP JUMPDEST PUSH1 0x40 MLOAD PUSH4 0x70A08231 PUSH1 0xE0 SHL DUP2 MSTORE ADDRESS PUSH1 0x4 DUP3 ADD MSTORE SWAP1 SWAP5 POP PUSH1 0x1 PUSH1 0x1 PUSH1 0xA0 SHL SUB DUP3 AND SWAP1 PUSH4 0x70A08231 SWAP1 PUSH1 0x24 ADD PUSH1 0x20 PUSH1 0x40 MLOAD DUP1 DUP4 SUB DUP2 DUP7 DUP1 EXTCODESIZE ISZERO DUP1 ISZERO PUSH2 0x804 JUMPI PUSH1 0x0 DUP1 REVERT JUMPDEST POP GAS STATICCALL ISZERO DUP1 ISZERO PUSH2 0x818 JUMPI RETURNDATASIZE PUSH1 0x0 DUP1 RETURNDATACOPY RETURNDATASIZE PUSH1 0x0 REVERT JUMPDEST POP POP POP POP PUSH1 0x40 MLOAD RETURNDATASIZE PUSH1 0x1F NOT PUSH1 0x1F DUP3 ADD AND DUP3 ADD DUP1 PUSH1 0x40 MSTORE POP DUP2 ADD SWAP1 PUSH2 0x83C SWAP2 SWAP1 PUSH2 0x2B63 JUMP JUMPDEST SWAP3 POP POP POP PUSH1 0x0 DUP10 DUP6 PUSH1 0x1 PUSH1 0x1 PUSH1 0x70 SHL SUB AND PUSH2 0x857 SWAP2 SWAP1 PUSH2 0x2D8A JUMP JUMPDEST DUP4 GT PUSH2 0x864 JUMPI PUSH1 0x0 PUSH2 0x881 JUMP JUMPDEST PUSH2 0x877 DUP11 PUSH1 0x1 PUSH1 0x1 PUSH1 0x70 SHL SUB DUP8 AND PUSH2 0x2D8A JUMP JUMPDEST PUSH2 0x881 SWAP1 DUP5 PUSH2 0x2D8A JUMP JUMPDEST SWAP1 POP PUSH1 0x0 PUSH2 0x898 DUP11 PUSH1 0x1 PUSH1 0x1 PUSH1 0x70 SHL SUB DUP8 AND PUSH2 0x2D8A JUMP JUMPDEST DUP4 GT PUSH2 0x8A5 JUMPI PUSH1 0x0 PUSH2 0x8C2 JUMP JUMPDEST PUSH2 0x8B8 DUP11 PUSH1 0x1 PUSH1 0x1 PUSH1 0x70 SHL SUB DUP8 AND PUSH2 0x2D8A JUMP JUMPDEST PUSH2 0x8C2 SWAP1 DUP5 PUSH2 0x2D8A JUMP JUMPDEST SWAP1 POP PUSH2 0x8F6 PUSH1 0x40 MLOAD DUP1 PUSH1 0xA0 ADD PUSH1 0x40 MSTORE DUP1 PUSH1 0x0 DUP2 MSTORE PUSH1 0x20 ADD PUSH1 0x0 DUP2 MSTORE PUSH1 0x20 ADD PUSH1 0x0 DUP2 MSTORE PUSH1 0x20 ADD PUSH1 0x0 DUP2 MSTORE PUSH1 0x20 ADD PUSH1 0x0 DUP2 MSTORE POP SWAP1 JUMP JUMPDEST PUSH2 0x3E8 PUSH2 0x905 DUP5 PUSH2 0x3E5 PUSH2 0x1BC3 JUMP JUMPDEST PUSH2 0x90F SWAP2 SWAP1 PUSH2 0x2D34 JUMP JUMPDEST DUP13 GT ISZERO PUSH2 0xA17 JUMPI DUP11 PUSH2 0x3E8 PUSH2 0x926 DUP5 PUSH2 0x3E5 PUSH2 0x1BC3 JUMP JUMPDEST PUSH2 0x930 SWAP2 SWAP1 PUSH2 0x2D34 JUMP JUMPDEST GT PUSH2 0x94D JUMPI PUSH1 0x40 MLOAD PUSH3 0x461BCD PUSH1 0xE5 SHL DUP2 MSTORE PUSH1 0x4 ADD PUSH2 0x536 SWAP1 PUSH2 0x2CAD JUMP JUMPDEST PUSH1 0xC SLOAD DUP2 MSTORE PUSH1 0xB SLOAD PUSH1 0x20 DUP3 ADD MSTORE DUP11 PUSH2 0x3E8 PUSH2 0x975 PUSH2 0x3E5 PUSH2 0x96F DUP7 PUSH1 0x1 PUSH2 0x1C2A JUMP JUMPDEST SWAP1 PUSH2 0x1BC3 JUMP JUMPDEST PUSH2 0x97F SWAP2 SWAP1 PUSH2 0x2D34 JUMP JUMPDEST PUSH2 0x989 SWAP2 SWAP1 PUSH2 0x2D8A JUMP JUMPDEST PUSH1 0x40 DUP3 ADD MSTORE PUSH2 0x3E8 PUSH2 0x99D DUP5 PUSH2 0x3E5 PUSH2 0x1BC3 JUMP JUMPDEST PUSH2 0x9A7 SWAP2 SWAP1 PUSH2 0x2D34 JUMP JUMPDEST PUSH2 0x9B1 SWAP1 DUP14 PUSH2 0x2D8A JUMP JUMPDEST PUSH1 0x60 DUP3 ADD MSTORE PUSH1 0xE SLOAD PUSH1 0x80 DUP3 ADD MSTORE PUSH1 0x7 SLOAD PUSH2 0x9D7 SWAP1 DUP3 SWAP1 PUSH1 0x1 PUSH1 0xA0 SHL SWAP1 DIV PUSH2 0xFFFF AND PUSH2 0x1C7F JUMP JUMPDEST PUSH2 0xA12 JUMPI PUSH1 0x40 MLOAD PUSH3 0x461BCD PUSH1 0xE5 SHL DUP2 MSTORE PUSH1 0x20 PUSH1 0x4 DUP3 ADD MSTORE PUSH1 0xC PUSH1 0x24 DUP3 ADD MSTORE PUSH12 0x506F776572737761703A204B PUSH1 0xA0 SHL PUSH1 0x44 DUP3 ADD MSTORE PUSH1 0x64 ADD PUSH2 0x536 JUMP JUMPDEST PUSH2 0xB2D JUMP JUMPDEST PUSH2 0x3E8 PUSH2 0xA26 DUP4 PUSH2 0x3E5 PUSH2 0x1BC3 JUMP JUMPDEST PUSH2 0xA30 SWAP2 SWAP1 PUSH2 0x2D34 JUMP JUMPDEST DUP12 GT ISZERO PUSH2 0xB2D JUMPI DUP12 PUSH2 0x3E8 PUSH2 0xA47 DUP6 PUSH2 0x3E5 PUSH2 0x1BC3 JUMP JUMPDEST PUSH2 0xA51 SWAP2 SWAP1 PUSH2 0x2D34 JUMP JUMPDEST GT PUSH2 0xA6E JUMPI PUSH1 0x40 MLOAD PUSH3 0x461BCD PUSH1 0xE5 SHL DUP2 MSTORE PUSH1 0x4 ADD PUSH2 0x536 SWAP1 PUSH2 0x2CAD JUMP JUMPDEST PUSH1 0x9 SLOAD DUP2 MSTORE PUSH1 0xA SLOAD PUSH1 0x20 DUP3 ADD MSTORE DUP12 PUSH2 0x3E8 PUSH2 0xA90 PUSH2 0x3E5 PUSH2 0x96F DUP8 PUSH1 0x1 PUSH2 0x1C2A JUMP JUMPDEST PUSH2 0xA9A SWAP2 SWAP1 PUSH2 0x2D34 JUMP JUMPDEST PUSH2 0xAA4 SWAP2 SWAP1 PUSH2 0x2D8A JUMP JUMPDEST PUSH1 0x40 DUP3 ADD MSTORE PUSH2 0x3E8 PUSH2 0xAB8 DUP4 PUSH2 0x3E5 PUSH2 0x1BC3 JUMP JUMPDEST PUSH2 0xAC2 SWAP2 SWAP1 PUSH2 0x2D34 JUMP JUMPDEST PUSH2 0xACC SWAP1 DUP13 PUSH2 0x2D8A JUMP JUMPDEST PUSH1 0x60 DUP3 ADD MSTORE PUSH1 0xD SLOAD PUSH1 0x80 DUP3 ADD MSTORE PUSH1 0x7 SLOAD PUSH2 0xAF2 SWAP1 DUP3 SWAP1 PUSH1 0x1 PUSH1 0xA0 SHL SWAP1 DIV PUSH2 0xFFFF AND PUSH2 0x1C7F JUMP JUMPDEST PUSH2 0xB2D JUMPI PUSH1 0x40 MLOAD PUSH3 0x461BCD PUSH1 0xE5 SHL DUP2 MSTORE PUSH1 0x20 PUSH1 0x4 DUP3 ADD MSTORE PUSH1 0xC PUSH1 0x24 DUP3 ADD MSTORE PUSH12 0x506F776572737761703A204B PUSH1 0xA0 SHL PUSH1 0x44 DUP3 ADD MSTORE PUSH1 0x64 ADD PUSH2 0x536 JUMP JUMPDEST POP PUSH2 0xB3C DUP3 DUP3 DUP14 DUP14 DUP9 DUP9 PUSH2 0x1D5D JUMP JUMPDEST PUSH1 0x40 DUP1 MLOAD DUP4 DUP2 MSTORE PUSH1 0x20 DUP2 ADD DUP4 SWAP1 MSTORE SWAP1 DUP2 ADD DUP13 SWAP1 MSTORE PUSH1 0x60 DUP2 ADD DUP12 SWAP1 MSTORE PUSH1 0x1 PUSH1 0x1 PUSH1 0xA0 SHL SUB DUP11 AND SWAP1 CALLER SWAP1 PUSH32 0xD78AD95FA46C994B6551D0DA85FC275FE613CE37657FB8D5E3D130840159D822 SWAP1 PUSH1 0x80 ADD PUSH1 0x40 MLOAD DUP1 SWAP2 SUB SWAP1 LOG3 POP POP PUSH1 0x1 PUSH1 0x12 SSTORE POP POP POP POP POP POP POP POP POP JUMP JUMPDEST PUSH1 0x8 SLOAD PUSH1 0x1 PUSH1 0x1 PUSH1 0x70 SHL SUB DUP1 DUP3 AND SWAP3 PUSH1 0x1 PUSH1 0x70 SHL DUP4 DIV SWAP1 SWAP2 AND SWAP2 PUSH1 0x1 PUSH1 0xE0 SHL SWAP1 DIV PUSH4 0xFFFFFFFF AND SWAP1 JUMP JUMPDEST PUSH1 0x0 PUSH2 0xBDA CALLER DUP5 DUP5 PUSH2 0x1F41 JUMP JUMPDEST POP PUSH1 0x1 JUMPDEST SWAP3 SWAP2 POP POP JUMP JUMPDEST PUSH1 0x1 PUSH1 0x1 PUSH1 0xA0 SHL SUB DUP4 AND PUSH1 0x0 SWAP1 DUP2 MSTORE PUSH1 0x2 PUSH1 0x20 SWAP1 DUP2 MSTORE PUSH1 0x40 DUP1 DUP4 KECCAK256 CALLER DUP5 MSTORE SWAP1 SWAP2 MSTORE DUP2 KECCAK256 SLOAD PUSH1 0x0 NOT EQ PUSH2 0xC63 JUMPI PUSH1 0x1 PUSH1 0x1 PUSH1 0xA0 SHL SUB DUP5 AND PUSH1 0x0 SWAP1 DUP2 MSTORE PUSH1 0x2 PUSH1 0x20 SWAP1 DUP2 MSTORE PUSH1 0x40 DUP1 DUP4 KECCAK256 CALLER DUP5 MSTORE SWAP1 SWAP2 MSTORE SWAP1 KECCAK256 SLOAD PUSH2 0xC3E SWAP1 DUP4 PUSH2 0x1FA3 JUMP JUMPDEST PUSH1 0x1 PUSH1 0x1 PUSH1 0xA0 SHL SUB DUP6 AND PUSH1 0x0 SWAP1 DUP2 MSTORE PUSH1 0x2 PUSH1 0x20 SWAP1 DUP2 MSTORE PUSH1 0x40 DUP1 DUP4 KECCAK256 CALLER DUP5 MSTORE SWAP1 SWAP2 MSTORE SWAP1 KECCAK256 SSTORE JUMPDEST PUSH2 0xC6E DUP5 DUP5 DUP5 PUSH2 0x1FF9 JUMP JUMPDEST POP PUSH1 0x1 SWAP4 SWAP3 POP POP POP JUMP JUMPDEST PUSH1 0x5 SLOAD PUSH1 0x1 PUSH1 0x1 PUSH1 0xA0 SHL SUB AND CALLER EQ PUSH2 0xCC9 JUMPI PUSH1 0x40 MLOAD PUSH3 0x461BCD PUSH1 0xE5 SHL DUP2 MSTORE PUSH1 0x20 PUSH1 0x4 DUP3 ADD MSTORE PUSH1 0x14 PUSH1 0x24 DUP3 ADD MSTORE PUSH20 0x2837BBB2B939BBB0B81D102327A92124A22222A7 PUSH1 0x61 SHL PUSH1 0x44 DUP3 ADD MSTORE PUSH1 0x64 ADD PUSH2 0x536 JUMP JUMPDEST PUSH1 0x6 DUP1 SLOAD PUSH1 0x1 PUSH1 0x1 PUSH1 0xA0 SHL SUB SWAP4 DUP5 AND PUSH1 0x1 PUSH1 0x1 PUSH1 0xA0 SHL SUB NOT SWAP1 SWAP2 AND OR SWAP1 SSTORE PUSH1 0x7 DUP1 SLOAD PUSH1 0x1 PUSH1 0x1 PUSH1 0xB0 SHL SUB NOT AND SWAP2 SWAP1 SWAP3 AND OR SWAP1 SSTORE JUMP JUMPDEST PUSH1 0x0 PUSH2 0xD0F PUSH5 0x100000000 TIMESTAMP PUSH2 0x2E05 JUMP JUMPDEST PUSH1 0x8 SLOAD SWAP1 SWAP2 POP PUSH1 0x0 SWAP1 PUSH2 0xD2F SWAP1 PUSH1 0x1 PUSH1 0xE0 SHL SWAP1 DIV PUSH4 0xFFFFFFFF AND DUP4 PUSH2 0x2DA1 JUMP JUMPDEST PUSH1 0x8 SLOAD SWAP1 SWAP2 POP PUSH1 0x1 PUSH1 0x1 PUSH1 0x70 SHL SUB DUP1 DUP3 AND SWAP2 PUSH1 0x1 PUSH1 0x70 SHL SWAP1 DIV AND PUSH4 0xFFFFFFFF DUP4 AND ISZERO DUP1 ISZERO SWAP1 PUSH2 0xD66 JUMPI POP PUSH1 0x1 PUSH1 0x1 PUSH1 0x70 SHL SUB DUP3 AND ISZERO ISZERO JUMPDEST DUP1 ISZERO PUSH2 0xD7A JUMPI POP PUSH1 0x1 PUSH1 0x1 PUSH1 0x70 SHL SUB DUP2 AND ISZERO ISZERO JUMPDEST ISZERO PUSH2 0xDA8 JUMPI PUSH2 0xD8A DUP3 DUP3 DUP6 PUSH2 0x209F JUMP JUMPDEST PUSH1 0x8 DUP1 SLOAD PUSH1 0x1 PUSH1 0x1 PUSH1 0xE0 SHL SUB AND PUSH1 0x1 PUSH1 0xE0 SHL PUSH4 0xFFFFFFFF DUP8 AND MUL OR SWAP1 SSTORE JUMPDEST POP POP POP POP JUMP JUMPDEST PUSH1 0x0 PUSH1 0x12 SLOAD PUSH1 0x1 EQ PUSH2 0xDD2 JUMPI PUSH1 0x40 MLOAD PUSH3 0x461BCD PUSH1 0xE5 SHL DUP2 MSTORE PUSH1 0x4 ADD PUSH2 0x536 SWAP1 PUSH2 0x2CF1 JUMP JUMPDEST PUSH1 0x0 PUSH1 0x12 DUP2 SWAP1 SSTORE DUP1 PUSH2 0xDE2 PUSH2 0xBA3 JUMP JUMPDEST POP PUSH1 0x6 SLOAD PUSH1 0x40 MLOAD PUSH4 0x70A08231 PUSH1 0xE0 SHL DUP2 MSTORE ADDRESS PUSH1 0x4 DUP3 ADD MSTORE SWAP3 SWAP5 POP SWAP1 SWAP3 POP PUSH1 0x0 SWAP2 PUSH1 0x1 PUSH1 0x1 PUSH1 0xA0 SHL SUB SWAP1 SWAP2 AND SWAP1 PUSH4 0x70A08231 SWAP1 PUSH1 0x24 ADD PUSH1 0x20 PUSH1 0x40 MLOAD DUP1 DUP4 SUB DUP2 DUP7 DUP1 EXTCODESIZE ISZERO DUP1 ISZERO PUSH2 0xE2F JUMPI PUSH1 0x0 DUP1 REVERT JUMPDEST POP GAS STATICCALL ISZERO DUP1 ISZERO PUSH2 0xE43 JUMPI RETURNDATASIZE PUSH1 0x0 DUP1 RETURNDATACOPY RETURNDATASIZE PUSH1 0x0 REVERT JUMPDEST POP POP POP POP PUSH1 0x40 MLOAD RETURNDATASIZE PUSH1 0x1F NOT PUSH1 0x1F DUP3 ADD AND DUP3 ADD DUP1 PUSH1 0x40 MSTORE POP DUP2 ADD SWAP1 PUSH2 0xE67 SWAP2 SWAP1 PUSH2 0x2B63 JUMP JUMPDEST PUSH1 0x7 SLOAD PUSH1 0x40 MLOAD PUSH4 0x70A08231 PUSH1 0xE0 SHL DUP2 MSTORE ADDRESS PUSH1 0x4 DUP3 ADD MSTORE SWAP2 SWAP3 POP PUSH1 0x0 SWAP2 PUSH1 0x1 PUSH1 0x1 PUSH1 0xA0 SHL SUB SWAP1 SWAP2 AND SWAP1 PUSH4 0x70A08231 SWAP1 PUSH1 0x24 ADD PUSH1 0x20 PUSH1 0x40 MLOAD DUP1 DUP4 SUB DUP2 DUP7 DUP1 EXTCODESIZE ISZERO DUP1 ISZERO PUSH2 0xEB0 JUMPI PUSH1 0x0 DUP1 REVERT JUMPDEST POP GAS STATICCALL ISZERO DUP1 ISZERO PUSH2 0xEC4 JUMPI RETURNDATASIZE PUSH1 0x0 DUP1 RETURNDATACOPY RETURNDATASIZE PUSH1 0x0 REVERT JUMPDEST POP POP POP POP PUSH1 0x40 MLOAD RETURNDATASIZE PUSH1 0x1F NOT PUSH1 0x1F DUP3 ADD AND DUP3 ADD DUP1 PUSH1 0x40 MSTORE POP DUP2 ADD SWAP1 PUSH2 0xEE8 SWAP2 SWAP1 PUSH2 0x2B63 JUMP JUMPDEST SWAP1 POP PUSH1 0x0 PUSH2 0xEFF DUP4 PUSH1 0x1 PUSH1 0x1 PUSH1 0x70 SHL SUB DUP8 AND PUSH2 0x1FA3 JUMP JUMPDEST SWAP1 POP PUSH1 0x0 PUSH2 0xF16 DUP4 PUSH1 0x1 PUSH1 0x1 PUSH1 0x70 SHL SUB DUP8 AND PUSH2 0x1FA3 JUMP JUMPDEST SWAP1 POP PUSH1 0x0 PUSH2 0xF24 DUP8 DUP8 PUSH2 0x2200 JUMP JUMPDEST PUSH1 0x0 SLOAD SWAP1 SWAP2 POP DUP1 PUSH2 0xF6B JUMPI PUSH2 0xF4D PUSH2 0x3E8 PUSH2 0xF47 PUSH2 0xF42 DUP8 DUP8 PUSH2 0x1BC3 JUMP JUMPDEST PUSH2 0x24E6 JUMP JUMPDEST SWAP1 PUSH2 0x1FA3 JUMP JUMPDEST SWAP9 POP PUSH2 0xF5C PUSH1 0x0 PUSH2 0x3E8 PUSH2 0x2556 JUMP JUMPDEST PUSH2 0xF66 DUP7 DUP7 PUSH2 0x25E5 JUMP JUMPDEST PUSH2 0xFED JUMP JUMPDEST PUSH2 0xF77 DUP7 DUP7 DUP11 DUP11 PUSH2 0x272A JUMP JUMPDEST PUSH2 0xFEA PUSH2 0xFA3 PUSH2 0xF88 DUP7 PUSH1 0x4 PUSH2 0x1BC3 JUMP JUMPDEST PUSH2 0xF9D PUSH1 0x1 PUSH1 0x1 PUSH1 0x70 SHL SUB DUP13 AND PUSH2 0x2710 PUSH2 0x1BC3 JUMP JUMPDEST SWAP1 PUSH2 0x1C2A JUMP JUMPDEST PUSH2 0xFB3 PUSH2 0x2648 PUSH2 0x96F DUP6 DUP10 PUSH2 0x1BC3 JUMP JUMPDEST PUSH2 0xFBD SWAP2 SWAP1 PUSH2 0x2D34 JUMP JUMPDEST PUSH2 0xFCB PUSH2 0xF88 DUP7 PUSH1 0x4 PUSH2 0x1BC3 JUMP JUMPDEST PUSH2 0xFDB PUSH2 0x2648 PUSH2 0x96F DUP7 DUP10 PUSH2 0x1BC3 JUMP JUMPDEST PUSH2 0xFE5 SWAP2 SWAP1 PUSH2 0x2D34 JUMP JUMPDEST PUSH2 0x2924 JUMP JUMPDEST SWAP9 POP JUMPDEST PUSH1 0x0 DUP10 GT PUSH2 0x104E JUMPI PUSH1 0x40 MLOAD PUSH3 0x461BCD PUSH1 0xE5 SHL DUP2 MSTORE PUSH1 0x20 PUSH1 0x4 DUP3 ADD MSTORE PUSH1 0x28 PUSH1 0x24 DUP3 ADD MSTORE PUSH32 0x506F776572737761703A20494E53554646494349454E545F4C49515549444954 PUSH1 0x44 DUP3 ADD MSTORE PUSH8 0x1657D35253951151 PUSH1 0xC2 SHL PUSH1 0x64 DUP3 ADD MSTORE PUSH1 0x84 ADD PUSH2 0x536 JUMP JUMPDEST PUSH2 0x1058 DUP11 DUP11 PUSH2 0x2556 JUMP JUMPDEST DUP2 ISZERO PUSH2 0x109E JUMPI PUSH1 0xE SLOAD PUSH2 0x109A SWAP1 PUSH2 0x107E SWAP1 PUSH1 0x70 SWAP1 PUSH2 0x1076 SWAP1 DUP11 PUSH2 0x1BC3 JUMP JUMPDEST DUP9 SWAP2 SHR PUSH2 0x1C2A JUMP JUMPDEST PUSH1 0xD SLOAD PUSH2 0x96F SWAP1 PUSH1 0x70 SWAP1 PUSH2 0x1092 SWAP1 DUP11 PUSH2 0x1BC3 JUMP JUMPDEST DUP11 SWAP2 SHR PUSH2 0x1C2A JUMP JUMPDEST PUSH1 0x11 SSTORE JUMPDEST PUSH1 0x40 DUP1 MLOAD DUP6 DUP2 MSTORE PUSH1 0x20 DUP2 ADD DUP6 SWAP1 MSTORE CALLER SWAP2 PUSH32 0x4C209B5FC8AD50758F13E2E1088BA56A560DFF690A1C6FEF26394F4C03821C4F SWAP2 ADD PUSH1 0x40 MLOAD DUP1 SWAP2 SUB SWAP1 LOG2 POP POP PUSH1 0x1 PUSH1 0x12 SSTORE POP SWAP5 SWAP7 SWAP6 POP POP POP POP POP POP JUMP JUMPDEST PUSH1 0x5 SLOAD PUSH1 0x40 DUP1 MLOAD PUSH4 0x2D36DCD9 PUSH1 0xE0 SHL DUP2 MSTORE SWAP1 MLOAD PUSH1 0x0 SWAP3 PUSH1 0x1 PUSH1 0x1 PUSH1 0xA0 SHL SUB AND SWAP2 PUSH4 0x2D36DCD9 SWAP2 PUSH1 0x4 DUP1 DUP4 ADD SWAP3 PUSH1 0x20 SWAP3 SWAP2 SWAP1 DUP3 SWAP1 SUB ADD DUP2 DUP7 DUP1 EXTCODESIZE ISZERO DUP1 ISZERO PUSH2 0x1131 JUMPI PUSH1 0x0 DUP1 REVERT JUMPDEST POP GAS STATICCALL ISZERO DUP1 ISZERO PUSH2 0x1145 JUMPI RETURNDATASIZE PUSH1 0x0 DUP1 RETURNDATACOPY RETURNDATASIZE PUSH1 0x0 REVERT JUMPDEST POP POP POP POP PUSH1 0x40 MLOAD RETURNDATASIZE PUSH1 0x1F NOT PUSH1 0x1F DUP3 ADD AND DUP3 ADD DUP1 PUSH1 0x40 MSTORE POP DUP2 ADD SWAP1 PUSH2 0x1169 SWAP2 SWAP1 PUSH2 0x29E3 JUMP JUMPDEST SWAP1 POP CALLER PUSH1 0x1 PUSH1 0x1 PUSH1 0xA0 SHL SUB DUP3 AND EQ PUSH2 0x11BA JUMPI PUSH1 0x40 MLOAD PUSH3 0x461BCD PUSH1 0xE5 SHL DUP2 MSTORE PUSH1 0x20 PUSH1 0x4 DUP3 ADD MSTORE PUSH1 0x14 PUSH1 0x24 DUP3 ADD MSTORE PUSH20 0x2837BBB2B939BBB0B81D102327A92124A22222A7 PUSH1 0x61 SHL PUSH1 0x44 DUP3 ADD MSTORE PUSH1 0x64 ADD PUSH2 0x536 JUMP JUMPDEST POP PUSH1 0x7 DUP1 SLOAD PUSH2 0xFFFF SWAP1 SWAP3 AND PUSH1 0x1 PUSH1 0xA0 SHL MUL PUSH2 0xFFFF PUSH1 0xA0 SHL NOT SWAP1 SWAP3 AND SWAP2 SWAP1 SWAP2 OR SWAP1 SSTORE JUMP JUMPDEST PUSH1 0x0 DUP1 PUSH1 0x12 SLOAD PUSH1 0x1 EQ PUSH2 0x1202 JUMPI PUSH1 0x40 MLOAD PUSH3 0x461BCD PUSH1 0xE5 SHL DUP2 MSTORE PUSH1 0x4 ADD PUSH2 0x536 SWAP1 PUSH2 0x2CF1 JUMP JUMPDEST PUSH1 0x0 PUSH1 0x12 DUP2 SWAP1 SSTORE DUP1 PUSH2 0x1212 PUSH2 0xBA3 JUMP JUMPDEST POP PUSH1 0x6 SLOAD PUSH1 0x7 SLOAD PUSH1 0x40 MLOAD PUSH4 0x70A08231 PUSH1 0xE0 SHL DUP2 MSTORE ADDRESS PUSH1 0x4 DUP3 ADD MSTORE SWAP4 SWAP6 POP SWAP2 SWAP4 POP PUSH1 0x1 PUSH1 0x1 PUSH1 0xA0 SHL SUB SWAP1 DUP2 AND SWAP3 SWAP2 AND SWAP1 PUSH1 0x0 SWAP1 DUP4 SWAP1 PUSH4 0x70A08231 SWAP1 PUSH1 0x24 ADD PUSH1 0x20 PUSH1 0x40 MLOAD DUP1 DUP4 SUB DUP2 DUP7 DUP1 EXTCODESIZE ISZERO DUP1 ISZERO PUSH2 0x1267 JUMPI PUSH1 0x0 DUP1 REVERT JUMPDEST POP GAS STATICCALL ISZERO DUP1 ISZERO PUSH2 0x127B JUMPI RETURNDATASIZE PUSH1 0x0 DUP1 RETURNDATACOPY RETURNDATASIZE PUSH1 0x0 REVERT JUMPDEST POP POP POP POP PUSH1 0x40 MLOAD RETURNDATASIZE PUSH1 0x1F NOT PUSH1 0x1F DUP3 ADD AND DUP3 ADD DUP1 PUSH1 0x40 MSTORE POP DUP2 ADD SWAP1 PUSH2 0x129F SWAP2 SWAP1 PUSH2 0x2B63 JUMP JUMPDEST PUSH1 0x40 MLOAD PUSH4 0x70A08231 PUSH1 0xE0 SHL DUP2 MSTORE ADDRESS PUSH1 0x4 DUP3 ADD MSTORE SWAP1 SWAP2 POP PUSH1 0x0 SWAP1 PUSH1 0x1 PUSH1 0x1 PUSH1 0xA0 SHL SUB DUP5 AND SWAP1 PUSH4 0x70A08231 SWAP1 PUSH1 0x24 ADD PUSH1 0x20 PUSH1 0x40 MLOAD DUP1 DUP4 SUB DUP2 DUP7 DUP1 EXTCODESIZE ISZERO DUP1 ISZERO PUSH2 0x12E4 JUMPI PUSH1 0x0 DUP1 REVERT JUMPDEST POP GAS STATICCALL ISZERO DUP1 ISZERO PUSH2 0x12F8 JUMPI RETURNDATASIZE PUSH1 0x0 DUP1 RETURNDATACOPY RETURNDATASIZE PUSH1 0x0 REVERT JUMPDEST POP POP POP POP PUSH1 0x40 MLOAD RETURNDATASIZE PUSH1 0x1F NOT PUSH1 0x1F DUP3 ADD AND DUP3 ADD DUP1 PUSH1 0x40 MSTORE POP DUP2 ADD SWAP1 PUSH2 0x131C SWAP2 SWAP1 PUSH2 0x2B63 JUMP JUMPDEST ADDRESS PUSH1 0x0 SWAP1 DUP2 MSTORE PUSH1 0x1 PUSH1 0x20 MSTORE PUSH1 0x40 DUP2 KECCAK256 SLOAD SWAP2 SWAP3 POP PUSH2 0x1339 DUP9 DUP9 PUSH2 0x2200 JUMP JUMPDEST PUSH1 0x0 DUP1 SLOAD SWAP2 SWAP3 POP PUSH2 0x1359 PUSH2 0x134E DUP6 PUSH1 0x2 PUSH2 0x1BC3 JUMP JUMPDEST PUSH2 0xF47 DUP5 PUSH1 0x64 PUSH2 0x1BC3 JUMP JUMPDEST SWAP1 POP PUSH1 0x0 PUSH2 0x137C PUSH1 0x1 DUP7 PUSH2 0x1372 PUSH1 0x62 PUSH2 0x96F DUP9 DUP1 PUSH2 0x1BC3 JUMP JUMPDEST PUSH2 0xF9D SWAP2 SWAP1 PUSH2 0x2D34 JUMP JUMPDEST SWAP1 POP DUP1 PUSH2 0x1389 DUP9 DUP5 PUSH2 0x1BC3 JUMP JUMPDEST PUSH2 0x1393 SWAP2 SWAP1 PUSH2 0x2D34 JUMP JUMPDEST SWAP13 POP DUP1 PUSH2 0x13A0 DUP8 DUP5 PUSH2 0x1BC3 JUMP JUMPDEST PUSH2 0x13AA SWAP2 SWAP1 PUSH2 0x2D34 JUMP JUMPDEST SWAP12 POP PUSH1 0x0 DUP14 GT DUP1 ISZERO PUSH2 0x13BC JUMPI POP PUSH1 0x0 DUP13 GT JUMPDEST PUSH2 0x1419 JUMPI PUSH1 0x40 MLOAD PUSH3 0x461BCD PUSH1 0xE5 SHL DUP2 MSTORE PUSH1 0x20 PUSH1 0x4 DUP3 ADD MSTORE PUSH1 0x28 PUSH1 0x24 DUP3 ADD MSTORE PUSH32 0x506F776572737761703A20494E53554646494349454E545F4C49515549444954 PUSH1 0x44 DUP3 ADD MSTORE PUSH8 0x1657D09554939151 PUSH1 0xC2 SHL PUSH1 0x64 DUP3 ADD MSTORE PUSH1 0x84 ADD PUSH2 0x536 JUMP JUMPDEST PUSH2 0x1423 ADDRESS DUP7 PUSH2 0x293C JUMP JUMPDEST PUSH2 0x142E DUP10 DUP16 DUP16 PUSH2 0x1A78 JUMP JUMPDEST PUSH2 0x1439 DUP9 DUP16 DUP15 PUSH2 0x1A78 JUMP JUMPDEST PUSH1 0x6 SLOAD PUSH1 0x40 MLOAD PUSH4 0x70A08231 PUSH1 0xE0 SHL DUP2 MSTORE ADDRESS PUSH1 0x4 DUP3 ADD MSTORE PUSH1 0x1 PUSH1 0x1 PUSH1 0xA0 SHL SUB SWAP1 SWAP2 AND SWAP1 PUSH4 0x70A08231 SWAP1 PUSH1 0x24 ADD PUSH1 0x20 PUSH1 0x40 MLOAD DUP1 DUP4 SUB DUP2 DUP7 DUP1 EXTCODESIZE ISZERO DUP1 ISZERO PUSH2 0x147C JUMPI PUSH1 0x0 DUP1 REVERT JUMPDEST POP GAS STATICCALL ISZERO DUP1 ISZERO PUSH2 0x1490 JUMPI RETURNDATASIZE PUSH1 0x0 DUP1 RETURNDATACOPY RETURNDATASIZE PUSH1 0x0 REVERT JUMPDEST POP POP POP POP PUSH1 0x40 MLOAD RETURNDATASIZE PUSH1 0x1F NOT PUSH1 0x1F DUP3 ADD AND DUP3 ADD DUP1 PUSH1 0x40 MSTORE POP DUP2 ADD SWAP1 PUSH2 0x14B4 SWAP2 SWAP1 PUSH2 0x2B63 JUMP JUMPDEST PUSH1 0x7 SLOAD PUSH1 0x40 MLOAD PUSH4 0x70A08231 PUSH1 0xE0 SHL DUP2 MSTORE ADDRESS PUSH1 0x4 DUP3 ADD MSTORE SWAP2 SWAP9 POP PUSH1 0x1 PUSH1 0x1 PUSH1 0xA0 SHL SUB AND SWAP1 PUSH4 0x70A08231 SWAP1 PUSH1 0x24 ADD PUSH1 0x20 PUSH1 0x40 MLOAD DUP1 DUP4 SUB DUP2 DUP7 DUP1 EXTCODESIZE ISZERO DUP1 ISZERO PUSH2 0x14F8 JUMPI PUSH1 0x0 DUP1 REVERT JUMPDEST POP GAS STATICCALL ISZERO DUP1 ISZERO PUSH2 0x150C JUMPI RETURNDATASIZE PUSH1 0x0 DUP1 RETURNDATACOPY RETURNDATASIZE PUSH1 0x0 REVERT JUMPDEST POP POP POP POP PUSH1 0x40 MLOAD RETURNDATASIZE PUSH1 0x1F NOT PUSH1 0x1F DUP3 ADD AND DUP3 ADD DUP1 PUSH1 0x40 MSTORE POP DUP2 ADD SWAP1 PUSH2 0x1530 SWAP2 SWAP1 PUSH2 0x2B63 JUMP JUMPDEST SWAP6 POP PUSH2 0x153E DUP8 DUP8 DUP14 DUP14 PUSH2 0x272A JUMP JUMPDEST DUP4 ISZERO PUSH2 0x1584 JUMPI PUSH1 0xE SLOAD PUSH2 0x1580 SWAP1 PUSH2 0x1564 SWAP1 PUSH1 0x70 SWAP1 PUSH2 0x155C SWAP1 DUP12 PUSH2 0x1BC3 JUMP JUMPDEST DUP10 SWAP2 SHR PUSH2 0x1C2A JUMP JUMPDEST PUSH1 0xD SLOAD PUSH2 0x96F SWAP1 PUSH1 0x70 SWAP1 PUSH2 0x1578 SWAP1 DUP12 PUSH2 0x1BC3 JUMP JUMPDEST DUP12 SWAP2 SHR PUSH2 0x1C2A JUMP JUMPDEST PUSH1 0x11 SSTORE JUMPDEST DUP14 PUSH1 0x1 PUSH1 0x1 PUSH1 0xA0 SHL SUB AND CALLER PUSH1 0x1 PUSH1 0x1 PUSH1 0xA0 SHL SUB AND PUSH32 0xDCCD412F0B1252819CB1FD330B93224CA42612892BB3F4F789976E6D81936496 DUP16 DUP16 PUSH1 0x40 MLOAD PUSH2 0x15D2 SWAP3 SWAP2 SWAP1 SWAP2 DUP3 MSTORE PUSH1 0x20 DUP3 ADD MSTORE PUSH1 0x40 ADD SWAP1 JUMP JUMPDEST PUSH1 0x40 MLOAD DUP1 SWAP2 SUB SWAP1 LOG3 POP POP POP POP POP POP POP POP POP POP POP PUSH1 0x1 PUSH1 0x12 DUP2 SWAP1 SSTORE POP SWAP2 POP SWAP2 JUMP JUMPDEST PUSH1 0x0 PUSH2 0xBDA CALLER DUP5 DUP5 PUSH2 0x1FF9 JUMP JUMPDEST PUSH1 0x12 SLOAD PUSH1 0x1 EQ PUSH2 0x1621 JUMPI PUSH1 0x40 MLOAD PUSH3 0x461BCD PUSH1 0xE5 SHL DUP2 MSTORE PUSH1 0x4 ADD PUSH2 0x536 SWAP1 PUSH2 0x2CF1 JUMP JUMPDEST PUSH1 0x0 PUSH1 0x12 SSTORE PUSH1 0x6 SLOAD PUSH1 0x7 SLOAD PUSH1 0x8 SLOAD PUSH1 0x40 MLOAD PUSH4 0x70A08231 PUSH1 0xE0 SHL DUP2 MSTORE ADDRESS PUSH1 0x4 DUP3 ADD MSTORE PUSH1 0x1 PUSH1 0x1 PUSH1 0xA0 SHL SUB SWAP4 DUP5 AND SWAP4 SWAP1 SWAP3 AND SWAP2 PUSH2 0x16CB SWAP2 DUP5 SWAP2 DUP7 SWAP2 PUSH2 0x16C6 SWAP2 PUSH1 0x1 PUSH1 0x1 PUSH1 0x70 SHL SUB SWAP1 SWAP2 AND SWAP1 DUP5 SWAP1 PUSH4 0x70A08231 SWAP1 PUSH1 0x24 ADD JUMPDEST PUSH1 0x20 PUSH1 0x40 MLOAD DUP1 DUP4 SUB DUP2 DUP7 DUP1 EXTCODESIZE ISZERO DUP1 ISZERO PUSH2 0x168E JUMPI PUSH1 0x0 DUP1 REVERT JUMPDEST POP GAS STATICCALL ISZERO DUP1 ISZERO PUSH2 0x16A2 JUMPI RETURNDATASIZE PUSH1 0x0 DUP1 RETURNDATACOPY RETURNDATASIZE PUSH1 0x0 REVERT JUMPDEST POP POP POP POP PUSH1 0x40 MLOAD RETURNDATASIZE PUSH1 0x1F NOT PUSH1 0x1F DUP3 ADD AND DUP3 ADD DUP1 PUSH1 0x40 MSTORE POP DUP2 ADD SWAP1 PUSH2 0xF47 SWAP2 SWAP1 PUSH2 0x2B63 JUMP JUMPDEST PUSH2 0x1A78 JUMP JUMPDEST PUSH1 0x8 SLOAD PUSH1 0x40 MLOAD PUSH4 0x70A08231 PUSH1 0xE0 SHL DUP2 MSTORE ADDRESS PUSH1 0x4 DUP3 ADD MSTORE PUSH2 0x1718 SWAP2 DUP4 SWAP2 DUP7 SWAP2 PUSH2 0x16C6 SWAP2 PUSH1 0x1 PUSH1 0x70 SHL SWAP1 SWAP2 DIV PUSH1 0x1 PUSH1 0x1 PUSH1 0x70 SHL SUB AND SWAP1 PUSH1 0x1 PUSH1 0x1 PUSH1 0xA0 SHL SUB DUP6 AND SWAP1 PUSH4 0x70A08231 SWAP1 PUSH1 0x24 ADD PUSH2 0x1676 JUMP JUMPDEST POP POP PUSH1 0x1 PUSH1 0x12 SSTORE POP JUMP JUMPDEST TIMESTAMP DUP5 LT ISZERO PUSH2 0x1767 JUMPI PUSH1 0x40 MLOAD PUSH3 0x461BCD PUSH1 0xE5 SHL DUP2 MSTORE PUSH1 0x20 PUSH1 0x4 DUP3 ADD MSTORE PUSH1 0x12 PUSH1 0x24 DUP3 ADD MSTORE PUSH18 0x141BDDD95C9CDDD85C0E8811561412549151 PUSH1 0x72 SHL PUSH1 0x44 DUP3 ADD MSTORE PUSH1 0x64 ADD PUSH2 0x536 JUMP JUMPDEST PUSH1 0x3 SLOAD PUSH1 0x1 PUSH1 0x1 PUSH1 0xA0 SHL SUB DUP9 AND PUSH1 0x0 SWAP1 DUP2 MSTORE PUSH1 0x4 PUSH1 0x20 MSTORE PUSH1 0x40 DUP2 KECCAK256 DUP1 SLOAD SWAP2 SWAP3 SWAP2 PUSH32 0x6E71EDAE12B1B97F4D1F60370FEF10105FA2FAAE0126114A169C64845D6126C9 SWAP2 DUP12 SWAP2 DUP12 SWAP2 DUP12 SWAP2 SWAP1 DUP8 PUSH2 0x17BA DUP4 PUSH2 0x2DEA JUMP JUMPDEST SWAP1 SWAP2 SSTORE POP PUSH1 0x40 DUP1 MLOAD PUSH1 0x20 DUP2 ADD SWAP7 SWAP1 SWAP7 MSTORE PUSH1 0x1 PUSH1 0x1 PUSH1 0xA0 SHL SUB SWAP5 DUP6 AND SWAP1 DUP7 ADD MSTORE SWAP3 SWAP1 SWAP2 AND PUSH1 0x60 DUP5 ADD MSTORE PUSH1 0x80 DUP4 ADD MSTORE PUSH1 0xA0 DUP3 ADD MSTORE PUSH1 0xC0 DUP2 ADD DUP8 SWAP1 MSTORE PUSH1 0xE0 ADD PUSH1 0x40 MLOAD PUSH1 0x20 DUP2 DUP4 SUB SUB DUP2 MSTORE SWAP1 PUSH1 0x40 MSTORE DUP1 MLOAD SWAP1 PUSH1 0x20 ADD KECCAK256 PUSH1 0x40 MLOAD PUSH1 0x20 ADD PUSH2 0x1833 SWAP3 SWAP2 SWAP1 PUSH2 0x1901 PUSH1 0xF0 SHL DUP2 MSTORE PUSH1 0x2 DUP2 ADD SWAP3 SWAP1 SWAP3 MSTORE PUSH1 0x22 DUP3 ADD MSTORE PUSH1 0x42 ADD SWAP1 JUMP JUMPDEST PUSH1 0x40 DUP1 MLOAD PUSH1 0x1F NOT DUP2 DUP5 SUB ADD DUP2 MSTORE DUP3 DUP3 MSTORE DUP1 MLOAD PUSH1 0x20 SWAP2 DUP3 ADD KECCAK256 PUSH1 0x0 DUP1 DUP6 MSTORE SWAP2 DUP5 ADD DUP1 DUP5 MSTORE DUP2 SWAP1 MSTORE PUSH1 0xFF DUP9 AND SWAP3 DUP5 ADD SWAP3 SWAP1 SWAP3 MSTORE PUSH1 0x60 DUP4 ADD DUP7 SWAP1 MSTORE PUSH1 0x80 DUP4 ADD DUP6 SWAP1 MSTORE SWAP1 SWAP3 POP SWAP1 PUSH1 0x1 SWAP1 PUSH1 0xA0 ADD PUSH1 0x20 PUSH1 0x40 MLOAD PUSH1 0x20 DUP2 SUB SWAP1 DUP1 DUP5 SUB SWAP1 DUP6 GAS STATICCALL ISZERO DUP1 ISZERO PUSH2 0x189E JUMPI RETURNDATASIZE PUSH1 0x0 DUP1 RETURNDATACOPY RETURNDATASIZE PUSH1 0x0 REVERT JUMPDEST POP POP PUSH1 0x40 MLOAD PUSH1 0x1F NOT ADD MLOAD SWAP2 POP POP PUSH1 0x1 PUSH1 0x1 PUSH1 0xA0 SHL SUB DUP2 AND ISZERO DUP1 ISZERO SWAP1 PUSH2 0x18D4 JUMPI POP DUP9 PUSH1 0x1 PUSH1 0x1 PUSH1 0xA0 SHL SUB AND DUP2 PUSH1 0x1 PUSH1 0x1 PUSH1 0xA0 SHL SUB AND EQ JUMPDEST PUSH2 0x1920 JUMPI PUSH1 0x40 MLOAD PUSH3 0x461BCD PUSH1 0xE5 SHL DUP2 MSTORE PUSH1 0x20 PUSH1 0x4 DUP3 ADD MSTORE PUSH1 0x1C PUSH1 0x24 DUP3 ADD MSTORE PUSH32 0x506F776572737761703A20494E56414C49445F5349474E415455524500000000 PUSH1 0x44 DUP3 ADD MSTORE PUSH1 0x64 ADD PUSH2 0x536 JUMP JUMPDEST PUSH2 0x192B DUP10 DUP10 DUP10 PUSH2 0x1F41 JUMP JUMPDEST POP POP POP POP POP POP POP POP POP JUMP JUMPDEST PUSH1 0x12 SLOAD PUSH1 0x1 EQ PUSH2 0x1958 JUMPI PUSH1 0x40 MLOAD PUSH3 0x461BCD PUSH1 0xE5 SHL DUP2 MSTORE PUSH1 0x4 ADD PUSH2 0x536 SWAP1 PUSH2 0x2CF1 JUMP JUMPDEST PUSH1 0x0 PUSH1 0x12 SSTORE PUSH1 0x6 SLOAD PUSH1 0x40 MLOAD PUSH4 0x70A08231 PUSH1 0xE0 SHL DUP2 MSTORE ADDRESS PUSH1 0x4 DUP3 ADD MSTORE PUSH2 0x1A71 SWAP2 PUSH1 0x1 PUSH1 0x1 PUSH1 0xA0 SHL SUB AND SWAP1 PUSH4 0x70A08231 SWAP1 PUSH1 0x24 ADD PUSH1 0x20 PUSH1 0x40 MLOAD DUP1 DUP4 SUB DUP2 DUP7 DUP1 EXTCODESIZE ISZERO DUP1 ISZERO PUSH2 0x19A2 JUMPI PUSH1 0x0 DUP1 REVERT JUMPDEST POP GAS STATICCALL ISZERO DUP1 ISZERO PUSH2 0x19B6 JUMPI RETURNDATASIZE PUSH1 0x0 DUP1 RETURNDATACOPY RETURNDATASIZE PUSH1 0x0 REVERT JUMPDEST POP POP POP POP PUSH1 0x40 MLOAD RETURNDATASIZE PUSH1 0x1F NOT PUSH1 0x1F DUP3 ADD AND DUP3 ADD DUP1 PUSH1 0x40 MSTORE POP DUP2 ADD SWAP1 PUSH2 0x19DA SWAP2 SWAP1 PUSH2 0x2B63 JUMP JUMPDEST PUSH1 0x7 SLOAD PUSH1 0x40 MLOAD PUSH4 0x70A08231 PUSH1 0xE0 SHL DUP2 MSTORE ADDRESS PUSH1 0x4 DUP3 ADD MSTORE PUSH1 0x1 PUSH1 0x1 PUSH1 0xA0 SHL SUB SWAP1 SWAP2 AND SWAP1 PUSH4 0x70A08231 SWAP1 PUSH1 0x24 ADD PUSH1 0x20 PUSH1 0x40 MLOAD DUP1 DUP4 SUB DUP2 DUP7 DUP1 EXTCODESIZE ISZERO DUP1 ISZERO PUSH2 0x1A1D JUMPI PUSH1 0x0 DUP1 REVERT JUMPDEST POP GAS STATICCALL ISZERO DUP1 ISZERO PUSH2 0x1A31 JUMPI RETURNDATASIZE PUSH1 0x0 DUP1 RETURNDATACOPY RETURNDATASIZE PUSH1 0x0 REVERT JUMPDEST POP POP POP POP PUSH1 0x40 MLOAD RETURNDATASIZE PUSH1 0x1F NOT PUSH1 0x1F DUP3 ADD AND DUP3 ADD DUP1 PUSH1 0x40 MSTORE POP DUP2 ADD SWAP1 PUSH2 0x1A55 SWAP2 SWAP1 PUSH2 0x2B63 JUMP JUMPDEST PUSH1 0x8 SLOAD PUSH1 0x1 PUSH1 0x1 PUSH1 0x70 SHL SUB DUP1 DUP3 AND SWAP2 PUSH1 0x1 PUSH1 0x70 SHL SWAP1 DIV AND PUSH2 0x272A JUMP JUMPDEST PUSH1 0x1 PUSH1 0x12 SSTORE JUMP JUMPDEST PUSH1 0x40 DUP1 MLOAD DUP1 DUP3 ADD DUP3 MSTORE PUSH1 0x19 DUP2 MSTORE PUSH32 0x7472616E7366657228616464726573732C75696E743235362900000000000000 PUSH1 0x20 SWAP2 DUP3 ADD MSTORE DUP2 MLOAD PUSH1 0x1 PUSH1 0x1 PUSH1 0xA0 SHL SUB DUP6 DUP2 AND PUSH1 0x24 DUP4 ADD MSTORE PUSH1 0x44 DUP1 DUP4 ADD DUP7 SWAP1 MSTORE DUP5 MLOAD DUP1 DUP5 SUB SWAP1 SWAP2 ADD DUP2 MSTORE PUSH1 0x64 SWAP1 SWAP3 ADD DUP5 MSTORE SWAP2 DUP2 ADD DUP1 MLOAD PUSH1 0x1 PUSH1 0x1 PUSH1 0xE0 SHL SUB AND PUSH4 0xA9059CBB PUSH1 0xE0 SHL OR SWAP1 MSTORE SWAP2 MLOAD PUSH1 0x0 SWAP3 DUP4 SWAP3 DUP8 AND SWAP2 PUSH2 0x1B04 SWAP2 SWAP1 PUSH2 0x2C12 JUMP JUMPDEST PUSH1 0x0 PUSH1 0x40 MLOAD DUP1 DUP4 SUB DUP2 PUSH1 0x0 DUP7 GAS CALL SWAP2 POP POP RETURNDATASIZE DUP1 PUSH1 0x0 DUP2 EQ PUSH2 0x1B41 JUMPI PUSH1 0x40 MLOAD SWAP2 POP PUSH1 0x1F NOT PUSH1 0x3F RETURNDATASIZE ADD AND DUP3 ADD PUSH1 0x40 MSTORE RETURNDATASIZE DUP3 MSTORE RETURNDATASIZE PUSH1 0x0 PUSH1 0x20 DUP5 ADD RETURNDATACOPY PUSH2 0x1B46 JUMP JUMPDEST PUSH1 0x60 SWAP2 POP JUMPDEST POP SWAP2 POP SWAP2 POP DUP2 DUP1 ISZERO PUSH2 0x1B70 JUMPI POP DUP1 MLOAD ISZERO DUP1 PUSH2 0x1B70 JUMPI POP DUP1 DUP1 PUSH1 0x20 ADD SWAP1 MLOAD DUP2 ADD SWAP1 PUSH2 0x1B70 SWAP2 SWAP1 PUSH2 0x2B1D JUMP JUMPDEST PUSH2 0x1BBC JUMPI PUSH1 0x40 MLOAD PUSH3 0x461BCD PUSH1 0xE5 SHL DUP2 MSTORE PUSH1 0x20 PUSH1 0x4 DUP3 ADD MSTORE PUSH1 0x1A PUSH1 0x24 DUP3 ADD MSTORE PUSH32 0x506F776572737761703A205452414E534645525F4641494C4544000000000000 PUSH1 0x44 DUP3 ADD MSTORE PUSH1 0x64 ADD PUSH2 0x536 JUMP JUMPDEST POP POP POP POP POP JUMP JUMPDEST PUSH1 0x0 DUP2 ISZERO DUP1 PUSH2 0x1BE7 JUMPI POP DUP3 DUP3 PUSH2 0x1BD9 DUP2 DUP4 PUSH2 0x2D48 JUMP JUMPDEST SWAP3 POP PUSH2 0x1BE5 SWAP1 DUP4 PUSH2 0x2D34 JUMP JUMPDEST EQ JUMPDEST PUSH2 0xBDE JUMPI PUSH1 0x40 MLOAD PUSH3 0x461BCD PUSH1 0xE5 SHL DUP2 MSTORE PUSH1 0x20 PUSH1 0x4 DUP3 ADD MSTORE PUSH1 0x14 PUSH1 0x24 DUP3 ADD MSTORE PUSH20 0x64732D6D6174682D6D756C2D6F766572666C6F77 PUSH1 0x60 SHL PUSH1 0x44 DUP3 ADD MSTORE PUSH1 0x64 ADD PUSH2 0x536 JUMP JUMPDEST PUSH1 0x0 DUP3 PUSH2 0x1C37 DUP4 DUP3 PUSH2 0x2D1C JUMP JUMPDEST SWAP2 POP DUP2 LT ISZERO PUSH2 0xBDE JUMPI PUSH1 0x40 MLOAD PUSH3 0x461BCD PUSH1 0xE5 SHL DUP2 MSTORE PUSH1 0x20 PUSH1 0x4 DUP3 ADD MSTORE PUSH1 0x14 PUSH1 0x24 DUP3 ADD MSTORE PUSH20 0x64732D6D6174682D6164642D6F766572666C6F77 PUSH1 0x60 SHL PUSH1 0x44 DUP3 ADD MSTORE PUSH1 0x64 ADD PUSH2 0x536 JUMP JUMPDEST DUP2 MLOAD PUSH1 0x0 SWAP1 DUP2 SWAP1 PUSH2 0x1CB0 SWAP1 PUSH2 0x1C96 SWAP1 PUSH2 0xFFFF PUSH2 0x1BC3 JUMP JUMPDEST PUSH2 0xF9D PUSH2 0x1CA5 DUP7 PUSH2 0xFFFF PUSH2 0x2D8A JUMP JUMPDEST PUSH1 0x40 DUP9 ADD MLOAD SWAP1 PUSH2 0x1BC3 JUMP JUMPDEST DUP5 MLOAD PUSH1 0x40 DUP7 ADD MLOAD PUSH2 0x1CC8 SWAP2 PUSH2 0xFFFF SWAP2 PUSH2 0x96F SWAP2 PUSH2 0x1BC3 JUMP JUMPDEST PUSH2 0x1CD2 SWAP2 SWAP1 PUSH2 0x2D34 JUMP JUMPDEST SWAP1 POP PUSH1 0x0 PUSH2 0x1D1C PUSH2 0x1CF0 PUSH2 0x1CE8 DUP7 PUSH2 0xFFFF PUSH2 0x2D8A JUMP JUMPDEST DUP8 MLOAD SWAP1 PUSH2 0x1BC3 JUMP JUMPDEST PUSH2 0xF9D DUP7 PUSH1 0x70 PUSH1 0xFF AND PUSH2 0x1D14 DUP11 PUSH1 0x20 ADD MLOAD DUP12 PUSH1 0x80 ADD MLOAD PUSH2 0x1BC3 SWAP1 SWAP2 SWAP1 PUSH4 0xFFFFFFFF AND JUMP JUMPDEST SWAP1 SHR SWAP1 PUSH2 0x1BC3 JUMP JUMPDEST PUSH2 0x1D39 PUSH2 0xFFFF PUSH2 0x96F DUP9 PUSH1 0x20 ADD MLOAD DUP7 PUSH2 0x1BC3 SWAP1 SWAP2 SWAP1 PUSH4 0xFFFFFFFF AND JUMP JUMPDEST PUSH2 0x1D43 SWAP2 SWAP1 PUSH2 0x2D34 JUMP JUMPDEST SWAP1 POP DUP5 PUSH1 0x60 ADD MLOAD DUP2 LT PUSH2 0x1D55 JUMPI PUSH1 0x1 SWAP3 POP JUMPDEST POP POP SWAP3 SWAP2 POP POP JUMP JUMPDEST DUP4 PUSH2 0x3E8 PUSH2 0x1D6D DUP9 PUSH2 0x3E5 PUSH2 0x1BC3 JUMP JUMPDEST PUSH2 0x1D77 SWAP2 SWAP1 PUSH2 0x2D34 JUMP JUMPDEST GT DUP1 ISZERO PUSH2 0x1D9C JUMPI POP PUSH2 0x3E8 PUSH2 0x1D8E DUP7 PUSH2 0x3E5 PUSH2 0x1BC3 JUMP JUMPDEST PUSH2 0x1D98 SWAP2 SWAP1 PUSH2 0x2D34 JUMP JUMPDEST DUP4 LT ISZERO JUMPDEST ISZERO PUSH2 0x1DF9 JUMPI PUSH2 0x1DAB DUP5 DUP8 PUSH2 0x2D8A JUMP JUMPDEST PUSH1 0x9 PUSH1 0x0 DUP3 DUP3 SLOAD PUSH2 0x1DBC SWAP2 SWAP1 PUSH2 0x2D1C JUMP JUMPDEST SWAP3 POP POP DUP2 SWAP1 SSTORE POP DUP5 PUSH1 0xA PUSH1 0x0 DUP3 DUP3 SLOAD PUSH2 0x1DD5 SWAP2 SWAP1 PUSH2 0x2D1C JUMP JUMPDEST SWAP3 POP POP DUP2 SWAP1 SSTORE POP DUP3 PUSH1 0xA PUSH1 0x0 DUP3 DUP3 SLOAD PUSH2 0x1DEE SWAP2 SWAP1 PUSH2 0x2D8A JUMP JUMPDEST SWAP1 SWAP2 SSTORE POP PUSH2 0x1ECB SWAP1 POP JUMP JUMPDEST DUP3 PUSH2 0x3E8 PUSH2 0x1E09 DUP8 PUSH2 0x3E5 PUSH2 0x1BC3 JUMP JUMPDEST PUSH2 0x1E13 SWAP2 SWAP1 PUSH2 0x2D34 JUMP JUMPDEST GT DUP1 ISZERO PUSH2 0x1E38 JUMPI POP PUSH2 0x3E8 PUSH2 0x1E2A DUP8 PUSH2 0x3E5 PUSH2 0x1BC3 JUMP JUMPDEST PUSH2 0x1E34 SWAP2 SWAP1 PUSH2 0x2D34 JUMP JUMPDEST DUP5 LT ISZERO JUMPDEST ISZERO PUSH2 0x1E89 JUMPI DUP6 PUSH1 0xB PUSH1 0x0 DUP3 DUP3 SLOAD PUSH2 0x1E4F SWAP2 SWAP1 PUSH2 0x2D1C JUMP JUMPDEST SWAP3 POP POP DUP2 SWAP1 SSTORE POP DUP4 PUSH1 0xB PUSH1 0x0 DUP3 DUP3 SLOAD PUSH2 0x1E68 SWAP2 SWAP1 PUSH2 0x2D8A JUMP JUMPDEST SWAP1 SWAP2 SSTORE POP PUSH2 0x1E78 SWAP1 POP DUP4 DUP7 PUSH2 0x2D8A JUMP JUMPDEST PUSH1 0xC PUSH1 0x0 DUP3 DUP3 SLOAD PUSH2 0x1DEE SWAP2 SWAP1 PUSH2 0x2D1C JUMP JUMPDEST PUSH2 0x1E93 DUP5 DUP8 PUSH2 0x2D8A JUMP JUMPDEST PUSH1 0x9 PUSH1 0x0 DUP3 DUP3 SLOAD PUSH2 0x1EA4 SWAP2 SWAP1 PUSH2 0x2D1C JUMP JUMPDEST SWAP1 SWAP2 SSTORE POP PUSH2 0x1EB4 SWAP1 POP DUP4 DUP7 PUSH2 0x2D8A JUMP JUMPDEST PUSH1 0xC PUSH1 0x0 DUP3 DUP3 SLOAD PUSH2 0x1EC5 SWAP2 SWAP1 PUSH2 0x2D1C JUMP JUMPDEST SWAP1 SWAP2 SSTORE POP POP JUMPDEST PUSH1 0x8 DUP1 SLOAD PUSH1 0x1 PUSH1 0x1 PUSH1 0x70 SHL SUB DUP4 DUP2 AND PUSH1 0x1 PUSH1 0x70 SHL SWAP1 DUP2 MUL PUSH1 0x1 PUSH1 0x1 PUSH1 0xE0 SHL SUB NOT SWAP1 SWAP4 AND DUP7 DUP4 AND OR SWAP3 SWAP1 SWAP3 OR SWAP3 DUP4 SWAP1 SSTORE PUSH1 0x40 DUP1 MLOAD DUP5 DUP4 AND DUP2 MSTORE SWAP3 SWAP1 SWAP4 DIV AND PUSH1 0x20 DUP3 ADD MSTORE PUSH32 0x1C411E9A96E071241C2F21F7726B17AE89E3CAB4C78BE50E062B03A9FFFBBAD1 SWAP2 ADD JUMPDEST PUSH1 0x40 MLOAD DUP1 SWAP2 SUB SWAP1 LOG1 POP POP POP POP POP POP JUMP JUMPDEST PUSH1 0x1 PUSH1 0x1 PUSH1 0xA0 SHL SUB DUP4 DUP2 AND PUSH1 0x0 DUP2 DUP2 MSTORE PUSH1 0x2 PUSH1 0x20 SWAP1 DUP2 MSTORE PUSH1 0x40 DUP1 DUP4 KECCAK256 SWAP5 DUP8 AND DUP1 DUP5 MSTORE SWAP5 DUP3 MSTORE SWAP2 DUP3 SWAP1 KECCAK256 DUP6 SWAP1 SSTORE SWAP1 MLOAD DUP5 DUP2 MSTORE PUSH32 0x8C5BE1E5EBEC7D5BD14F71427D1E84F3DD0314C0F7B2291E5B200AC8C7C3B925 SWAP2 ADD JUMPDEST PUSH1 0x40 MLOAD DUP1 SWAP2 SUB SWAP1 LOG3 POP POP POP JUMP JUMPDEST PUSH1 0x0 DUP3 PUSH2 0x1FB0 DUP4 DUP3 PUSH2 0x2D8A JUMP JUMPDEST SWAP2 POP DUP2 GT ISZERO PUSH2 0xBDE JUMPI PUSH1 0x40 MLOAD PUSH3 0x461BCD PUSH1 0xE5 SHL DUP2 MSTORE PUSH1 0x20 PUSH1 0x4 DUP3 ADD MSTORE PUSH1 0x15 PUSH1 0x24 DUP3 ADD MSTORE PUSH21 0x64732D6D6174682D7375622D756E646572666C6F77 PUSH1 0x58 SHL PUSH1 0x44 DUP3 ADD MSTORE PUSH1 0x64 ADD PUSH2 0x536 JUMP JUMPDEST PUSH1 0x1 PUSH1 0x1 PUSH1 0xA0 SHL SUB DUP4 AND PUSH1 0x0 SWAP1 DUP2 MSTORE PUSH1 0x1 PUSH1 0x20 MSTORE PUSH1 0x40 SWAP1 KECCAK256 SLOAD PUSH2 0x201C SWAP1 DUP3 PUSH2 0x1FA3 JUMP JUMPDEST PUSH1 0x1 PUSH1 0x1 PUSH1 0xA0 SHL SUB DUP1 DUP6 AND PUSH1 0x0 SWAP1 DUP2 MSTORE PUSH1 0x1 PUSH1 0x20 MSTORE PUSH1 0x40 DUP1 DUP3 KECCAK256 SWAP4 SWAP1 SWAP4 SSTORE SWAP1 DUP5 AND DUP2 MSTORE KECCAK256 SLOAD PUSH2 0x204B SWAP1 DUP3 PUSH2 0x1C2A JUMP JUMPDEST PUSH1 0x1 PUSH1 0x1 PUSH1 0xA0 SHL SUB DUP1 DUP5 AND PUSH1 0x0 DUP2 DUP2 MSTORE PUSH1 0x1 PUSH1 0x20 MSTORE PUSH1 0x40 SWAP1 DUP2 SWAP1 KECCAK256 SWAP4 SWAP1 SWAP4 SSTORE SWAP2 MLOAD SWAP1 DUP6 AND SWAP1 PUSH32 0xDDF252AD1BE2C89B69C2B068FC378DAA952BA7F163C4A11628F55A4DF523B3EF SWAP1 PUSH2 0x1F96 SWAP1 DUP6 DUP2 MSTORE PUSH1 0x20 ADD SWAP1 JUMP JUMPDEST PUSH1 0x1 PUSH1 0x1 PUSH1 0x70 SHL SUB DUP1 DUP5 AND PUSH1 0x9 DUP2 SWAP1 SSTORE SWAP1 DUP4 AND PUSH1 0xA DUP2 SWAP1 SSTORE PUSH1 0xB SWAP2 SWAP1 SWAP2 SSTORE PUSH1 0xC DUP2 SWAP1 SSTORE PUSH1 0xD SLOAD PUSH1 0xE SLOAD PUSH1 0x7 SLOAD SWAP2 SWAP3 SWAP1 SWAP2 PUSH2 0xFFFF PUSH1 0x1 PUSH1 0xA0 SHL SWAP1 SWAP2 DIV DUP2 AND SWAP2 PUSH2 0x20E6 SWAP2 PUSH2 0x1BC3 JUMP JUMPDEST PUSH2 0x212E PUSH2 0x2113 PUSH2 0x20F8 DUP5 PUSH2 0xFFFF PUSH2 0x2D67 JUMP JUMPDEST PUSH1 0x1 PUSH1 0x70 SHL PUSH1 0x1 PUSH1 0xE0 SHL SUB PUSH1 0x70 DUP12 SWAP1 SHL AND SWAP1 PUSH2 0xFFFF AND PUSH2 0x1BC3 JUMP JUMPDEST PUSH2 0xF9D PUSH2 0xFFFF DUP6 AND PUSH2 0x96F DUP9 PUSH1 0x1 PUSH1 0x1 PUSH1 0x70 SHL SUB DUP13 AND PUSH2 0x1BC3 JUMP JUMPDEST PUSH2 0x2138 SWAP2 SWAP1 PUSH2 0x2D34 JUMP JUMPDEST PUSH1 0xD SSTORE PUSH2 0x2150 PUSH1 0x1 PUSH1 0x1 PUSH1 0x70 SHL SUB DUP8 AND PUSH2 0xFFFF PUSH2 0x1BC3 JUMP JUMPDEST PUSH2 0x2198 PUSH2 0x217D PUSH2 0x2162 DUP5 PUSH2 0xFFFF PUSH2 0x2D67 JUMP JUMPDEST PUSH1 0x1 PUSH1 0x70 SHL PUSH1 0x1 PUSH1 0xE0 SHL SUB PUSH1 0x70 DUP11 SWAP1 SHL AND SWAP1 PUSH2 0xFFFF AND PUSH2 0x1BC3 JUMP JUMPDEST PUSH2 0xF9D PUSH2 0xFFFF DUP6 AND PUSH2 0x96F DUP8 PUSH1 0x1 PUSH1 0x1 PUSH1 0x70 SHL SUB DUP14 AND PUSH2 0x1BC3 JUMP JUMPDEST PUSH2 0x21A2 SWAP2 SWAP1 PUSH2 0x2D34 JUMP JUMPDEST PUSH1 0xE DUP2 SWAP1 SSTORE PUSH2 0x21B8 SWAP1 PUSH4 0xFFFFFFFF DUP7 AND SWAP1 PUSH2 0x2D48 JUMP JUMPDEST PUSH1 0xF PUSH1 0x0 DUP3 DUP3 SLOAD PUSH2 0x21C9 SWAP2 SWAP1 PUSH2 0x2D1C JUMP JUMPDEST SWAP1 SWAP2 SSTORE POP POP PUSH1 0xD SLOAD PUSH2 0x21E2 SWAP1 PUSH4 0xFFFFFFFF DUP7 AND SWAP1 PUSH2 0x2D48 JUMP JUMPDEST PUSH1 0x10 PUSH1 0x0 DUP3 DUP3 SLOAD PUSH2 0x21F3 SWAP2 SWAP1 PUSH2 0x2D1C JUMP JUMPDEST SWAP1 SWAP2 SSTORE POP POP POP POP POP POP POP POP JUMP JUMPDEST PUSH1 0x0 DUP1 PUSH1 0x5 PUSH1 0x0 SWAP1 SLOAD SWAP1 PUSH2 0x100 EXP SWAP1 DIV PUSH1 0x1 PUSH1 0x1 PUSH1 0xA0 SHL SUB AND PUSH1 0x1 PUSH1 0x1 PUSH1 0xA0 SHL SUB AND PUSH4 0x17E7E58 PUSH1 0x40 MLOAD DUP2 PUSH4 0xFFFFFFFF AND PUSH1 0xE0 SHL DUP2 MSTORE PUSH1 0x4 ADD PUSH1 0x20 PUSH1 0x40 MLOAD DUP1 DUP4 SUB DUP2 DUP7 DUP1 EXTCODESIZE ISZERO DUP1 ISZERO PUSH2 0x2251 JUMPI PUSH1 0x0 DUP1 REVERT JUMPDEST POP GAS STATICCALL ISZERO DUP1 ISZERO PUSH2 0x2265 JUMPI RETURNDATASIZE PUSH1 0x0 DUP1 RETURNDATACOPY RETURNDATASIZE PUSH1 0x0 REVERT JUMPDEST POP POP POP POP PUSH1 0x40 MLOAD RETURNDATASIZE PUSH1 0x1F NOT PUSH1 0x1F DUP3 ADD AND DUP3 ADD DUP1 PUSH1 0x40 MSTORE POP DUP2 ADD SWAP1 PUSH2 0x2289 SWAP2 SWAP1 PUSH2 0x29E3 JUMP JUMPDEST PUSH1 0x11 SLOAD PUSH1 0x1 PUSH1 0x1 PUSH1 0xA0 SHL SUB DUP3 AND ISZERO DUP1 ISZERO SWAP5 POP SWAP2 SWAP3 POP SWAP1 PUSH2 0x24D3 JUMPI DUP1 ISZERO PUSH2 0x24CE JUMPI PUSH1 0x0 PUSH2 0x22BA PUSH5 0x100000000 TIMESTAMP PUSH2 0x2E05 JUMP JUMPDEST PUSH1 0x8 SLOAD SWAP1 SWAP2 POP PUSH1 0x0 SWAP1 PUSH2 0x22DA SWAP1 PUSH1 0x1 PUSH1 0xE0 SHL SWAP1 DIV PUSH4 0xFFFFFFFF AND DUP4 PUSH2 0x2DA1 JUMP JUMPDEST PUSH1 0xD SLOAD PUSH1 0xE SLOAD SWAP2 SWAP3 POP SWAP1 PUSH4 0xFFFFFFFF DUP4 AND ISZERO PUSH2 0x23E6 JUMPI PUSH1 0x7 SLOAD PUSH2 0xFFFF PUSH1 0x1 PUSH1 0xA0 SHL SWAP1 SWAP2 DIV DUP2 AND SWAP1 PUSH2 0x2315 SWAP1 PUSH1 0x1 PUSH1 0x1 PUSH1 0x70 SHL SUB DUP12 AND SWAP1 PUSH2 0x1BC3 JUMP JUMPDEST PUSH2 0x2366 PUSH2 0x2342 PUSH2 0x2327 DUP5 PUSH2 0xFFFF PUSH2 0x2D67 JUMP JUMPDEST PUSH1 0x1 PUSH1 0x70 SHL PUSH1 0x1 PUSH1 0xE0 SHL SUB PUSH1 0x70 DUP16 SWAP1 SHL AND SWAP1 PUSH2 0xFFFF AND PUSH2 0x1BC3 JUMP JUMPDEST PUSH2 0xF9D DUP5 PUSH2 0xFFFF AND PUSH2 0x96F DUP15 PUSH1 0x1 PUSH1 0x1 PUSH1 0x70 SHL SUB AND DUP10 PUSH2 0x1BC3 SWAP1 SWAP2 SWAP1 PUSH4 0xFFFFFFFF AND JUMP JUMPDEST PUSH2 0x2370 SWAP2 SWAP1 PUSH2 0x2D34 JUMP JUMPDEST SWAP3 POP PUSH2 0x2387 PUSH1 0x1 PUSH1 0x1 PUSH1 0x70 SHL SUB DUP12 AND PUSH2 0xFFFF PUSH2 0x1BC3 JUMP JUMPDEST PUSH2 0x23D8 PUSH2 0x23B4 PUSH2 0x2399 DUP5 PUSH2 0xFFFF PUSH2 0x2D67 JUMP JUMPDEST PUSH1 0x1 PUSH1 0x70 SHL PUSH1 0x1 PUSH1 0xE0 SHL SUB PUSH1 0x70 DUP15 SWAP1 SHL AND SWAP1 PUSH2 0xFFFF AND PUSH2 0x1BC3 JUMP JUMPDEST PUSH2 0xF9D DUP5 PUSH2 0xFFFF AND PUSH2 0x96F DUP16 PUSH1 0x1 PUSH1 0x1 PUSH1 0x70 SHL SUB AND DUP9 PUSH2 0x1BC3 SWAP1 SWAP2 SWAP1 PUSH4 0xFFFFFFFF AND JUMP JUMPDEST PUSH2 0x23E2 SWAP2 SWAP1 PUSH2 0x2D34 JUMP JUMPDEST SWAP2 POP POP JUMPDEST PUSH1 0x0 PUSH2 0x2461 PUSH2 0xF42 PUSH2 0x2423 PUSH1 0x70 PUSH1 0xFF AND PUSH2 0x2412 DUP15 PUSH1 0x1 PUSH1 0x1 PUSH1 0x70 SHL SUB AND DUP8 PUSH2 0x1BC3 SWAP1 SWAP2 SWAP1 PUSH4 0xFFFFFFFF AND JUMP JUMPDEST PUSH1 0x1 PUSH1 0x1 PUSH1 0x70 SHL SUB DUP15 AND SWAP2 SHR PUSH2 0x1C2A JUMP JUMPDEST PUSH2 0x96F PUSH1 0x70 PUSH1 0xFF AND PUSH2 0x2447 DUP15 PUSH1 0x1 PUSH1 0x1 PUSH1 0x70 SHL SUB AND DUP10 PUSH2 0x1BC3 SWAP1 SWAP2 SWAP1 PUSH4 0xFFFFFFFF AND JUMP JUMPDEST SWAP1 SHR DUP15 PUSH1 0x1 PUSH1 0x1 PUSH1 0x70 SHL SUB AND PUSH2 0x1C2A SWAP1 SWAP2 SWAP1 PUSH4 0xFFFFFFFF AND JUMP JUMPDEST SWAP1 POP PUSH1 0x0 PUSH2 0x246E DUP8 PUSH2 0x24E6 JUMP JUMPDEST SWAP1 POP DUP1 DUP3 GT ISZERO PUSH2 0x24C7 JUMPI PUSH1 0x0 PUSH2 0x2490 PUSH2 0x2487 DUP5 DUP5 PUSH2 0x1FA3 JUMP JUMPDEST PUSH1 0x0 SLOAD SWAP1 PUSH2 0x1BC3 JUMP JUMPDEST SWAP1 POP PUSH1 0x0 PUSH2 0x24A3 DUP4 PUSH2 0xF9D DUP7 PUSH1 0x5 PUSH2 0x1BC3 JUMP JUMPDEST SWAP1 POP PUSH1 0x0 PUSH2 0x24B1 DUP3 DUP5 PUSH2 0x2D34 JUMP JUMPDEST SWAP1 POP DUP1 ISZERO PUSH2 0x24C3 JUMPI PUSH2 0x24C3 DUP12 DUP3 PUSH2 0x2556 JUMP JUMPDEST POP POP POP JUMPDEST POP POP POP POP POP POP JUMPDEST PUSH2 0x1D55 JUMP JUMPDEST DUP1 ISZERO PUSH2 0x1D55 JUMPI PUSH1 0x0 PUSH1 0x11 SSTORE POP POP SWAP3 SWAP2 POP POP JUMP JUMPDEST PUSH1 0x0 PUSH1 0x3 DUP3 GT ISZERO PUSH2 0x2547 JUMPI POP DUP1 PUSH1 0x0 PUSH2 0x2500 PUSH1 0x2 DUP4 PUSH2 0x2D34 JUMP JUMPDEST PUSH2 0x250B SWAP1 PUSH1 0x1 PUSH2 0x2D1C JUMP JUMPDEST SWAP1 POP JUMPDEST DUP2 DUP2 LT ISZERO PUSH2 0x2541 JUMPI SWAP1 POP DUP1 PUSH1 0x2 DUP2 PUSH2 0x2526 DUP2 DUP7 PUSH2 0x2D34 JUMP JUMPDEST PUSH2 0x2530 SWAP2 SWAP1 PUSH2 0x2D1C JUMP JUMPDEST PUSH2 0x253A SWAP2 SWAP1 PUSH2 0x2D34 JUMP JUMPDEST SWAP1 POP PUSH2 0x250E JUMP JUMPDEST POP SWAP2 SWAP1 POP JUMP JUMPDEST DUP2 ISZERO PUSH2 0x2551 JUMPI POP PUSH1 0x1 JUMPDEST SWAP2 SWAP1 POP JUMP JUMPDEST PUSH1 0x0 SLOAD PUSH2 0x2563 SWAP1 DUP3 PUSH2 0x1C2A JUMP JUMPDEST PUSH1 0x0 SWAP1 DUP2 SSTORE PUSH1 0x1 PUSH1 0x1 PUSH1 0xA0 SHL SUB DUP4 AND DUP2 MSTORE PUSH1 0x1 PUSH1 0x20 MSTORE PUSH1 0x40 SWAP1 KECCAK256 SLOAD PUSH2 0x2588 SWAP1 DUP3 PUSH2 0x1C2A JUMP JUMPDEST PUSH1 0x1 PUSH1 0x1 PUSH1 0xA0 SHL SUB DUP4 AND PUSH1 0x0 DUP2 DUP2 MSTORE PUSH1 0x1 PUSH1 0x20 MSTORE PUSH1 0x40 DUP1 DUP3 KECCAK256 SWAP4 SWAP1 SWAP4 SSTORE SWAP2 MLOAD SWAP1 SWAP2 SWAP1 PUSH32 0xDDF252AD1BE2C89B69C2B068FC378DAA952BA7F163C4A11628F55A4DF523B3EF SWAP1 PUSH2 0x25D9 SWAP1 DUP6 DUP2 MSTORE PUSH1 0x20 ADD SWAP1 JUMP JUMPDEST PUSH1 0x40 MLOAD DUP1 SWAP2 SUB SWAP1 LOG3 POP POP JUMP JUMPDEST PUSH1 0x1 PUSH1 0x1 PUSH1 0x70 SHL SUB DUP3 GT DUP1 ISZERO SWAP1 PUSH2 0x2603 JUMPI POP PUSH1 0x1 PUSH1 0x1 PUSH1 0x70 SHL SUB DUP2 GT ISZERO JUMPDEST PUSH2 0x2645 JUMPI PUSH1 0x40 MLOAD PUSH3 0x461BCD PUSH1 0xE5 SHL DUP2 MSTORE PUSH1 0x20 PUSH1 0x4 DUP3 ADD MSTORE PUSH1 0x13 PUSH1 0x24 DUP3 ADD MSTORE PUSH19 0x506F776572737761703A204F564552464C4F57 PUSH1 0x68 SHL PUSH1 0x44 DUP3 ADD MSTORE PUSH1 0x64 ADD PUSH2 0x536 JUMP JUMPDEST PUSH1 0x8 DUP1 SLOAD PUSH1 0x1 PUSH1 0x1 PUSH1 0x70 SHL SUB DUP4 DUP2 AND PUSH1 0x1 PUSH1 0x70 SHL MUL PUSH1 0x1 PUSH1 0x1 PUSH1 0xE0 SHL SUB NOT SWAP1 SWAP3 AND SWAP1 DUP6 AND OR OR SWAP1 SSTORE PUSH1 0x9 DUP3 SWAP1 SSTORE PUSH1 0xA DUP2 SWAP1 SSTORE PUSH1 0xB DUP3 SWAP1 SSTORE PUSH1 0xC DUP2 SWAP1 SSTORE PUSH2 0x268F DUP2 PUSH1 0x70 DUP5 SWAP1 SHL PUSH2 0x2D34 JUMP JUMPDEST PUSH1 0xD SSTORE PUSH2 0x26A0 DUP3 PUSH1 0x70 DUP4 SWAP1 SHL PUSH2 0x2D34 JUMP JUMPDEST PUSH1 0xE SSTORE PUSH2 0x26B2 PUSH5 0x100000000 TIMESTAMP PUSH2 0x2E05 JUMP JUMPDEST PUSH1 0x8 DUP1 SLOAD PUSH4 0xFFFFFFFF SWAP3 SWAP1 SWAP3 AND PUSH1 0x1 PUSH1 0xE0 SHL MUL PUSH1 0x1 PUSH1 0x1 PUSH1 0xE0 SHL SUB DUP4 AND DUP2 OR SWAP2 DUP3 SWAP1 SSTORE PUSH1 0x40 DUP1 MLOAD PUSH1 0x1 PUSH1 0x1 PUSH1 0x70 SHL SUB SWAP3 DUP4 AND SWAP5 DUP4 AND SWAP5 SWAP1 SWAP5 OR DUP5 MSTORE PUSH1 0x1 PUSH1 0x70 SHL SWAP1 SWAP3 DIV AND PUSH1 0x20 DUP4 ADD MSTORE PUSH32 0x1C411E9A96E071241C2F21F7726B17AE89E3CAB4C78BE50E062B03A9FFFBBAD1 SWAP2 ADD PUSH1 0x40 MLOAD DUP1 SWAP2 SUB SWAP1 LOG1 POP POP JUMP JUMPDEST PUSH1 0x1 PUSH1 0x1 PUSH1 0x70 SHL SUB DUP5 GT DUP1 ISZERO SWAP1 PUSH2 0x2748 JUMPI POP PUSH1 0x1 PUSH1 0x1 PUSH1 0x70 SHL SUB DUP4 GT ISZERO JUMPDEST PUSH2 0x278A JUMPI PUSH1 0x40 MLOAD PUSH3 0x461BCD PUSH1 0xE5 SHL DUP2 MSTORE PUSH1 0x20 PUSH1 0x4 DUP3 ADD MSTORE PUSH1 0x13 PUSH1 0x24 DUP3 ADD MSTORE PUSH19 0x506F776572737761703A204F564552464C4F57 PUSH1 0x68 SHL PUSH1 0x44 DUP3 ADD MSTORE PUSH1 0x64 ADD PUSH2 0x536 JUMP JUMPDEST PUSH1 0x8 DUP1 SLOAD PUSH1 0x1 PUSH1 0x1 PUSH1 0x70 SHL SUB DUP6 DUP2 AND PUSH1 0x1 PUSH1 0x70 SHL MUL PUSH1 0x1 PUSH1 0x1 PUSH1 0xE0 SHL SUB NOT SWAP1 SWAP3 AND SWAP1 DUP8 AND OR OR SWAP1 SSTORE PUSH1 0x0 PUSH2 0x27C3 PUSH5 0x100000000 TIMESTAMP PUSH2 0x2E05 JUMP JUMPDEST PUSH1 0x8 SLOAD SWAP1 SWAP2 POP PUSH1 0x0 SWAP1 PUSH2 0x27E3 SWAP1 PUSH1 0x1 PUSH1 0xE0 SHL SWAP1 DIV PUSH4 0xFFFFFFFF AND DUP4 PUSH2 0x2DA1 JUMP JUMPDEST SWAP1 POP PUSH1 0x0 DUP2 PUSH4 0xFFFFFFFF AND GT DUP1 ISZERO PUSH2 0x2803 JUMPI POP PUSH1 0x1 PUSH1 0x1 PUSH1 0x70 SHL SUB DUP5 AND ISZERO ISZERO JUMPDEST DUP1 ISZERO PUSH2 0x2817 JUMPI POP PUSH1 0x1 PUSH1 0x1 PUSH1 0x70 SHL SUB DUP4 AND ISZERO ISZERO JUMPDEST ISZERO PUSH2 0x285F JUMPI PUSH1 0x8 SLOAD PUSH2 0x283D SWAP1 PUSH1 0x1 PUSH1 0x1 PUSH1 0x70 SHL SUB DUP1 DUP3 AND SWAP2 PUSH1 0x1 PUSH1 0x70 SHL SWAP1 DIV AND DUP4 PUSH2 0x209F JUMP JUMPDEST PUSH1 0x8 DUP1 SLOAD PUSH1 0x1 PUSH1 0x1 PUSH1 0xE0 SHL SUB AND PUSH1 0x1 PUSH1 0xE0 SHL PUSH4 0xFFFFFFFF DUP6 AND MUL OR SWAP1 SSTORE PUSH2 0x28D8 JUMP JUMPDEST PUSH1 0x9 SLOAD PUSH1 0xA SLOAD PUSH1 0xB SLOAD PUSH1 0xC SLOAD PUSH2 0x2882 PUSH1 0x1 PUSH1 0x1 PUSH1 0x70 SHL SUB DUP10 AND PUSH2 0xF47 DUP7 DUP14 PUSH2 0x1C2A JUMP JUMPDEST PUSH1 0x9 SSTORE PUSH2 0x289C PUSH1 0x1 PUSH1 0x1 PUSH1 0x70 SHL SUB DUP9 AND PUSH2 0xF47 DUP6 DUP13 PUSH2 0x1C2A JUMP JUMPDEST PUSH1 0xA SSTORE PUSH2 0x28B6 PUSH1 0x1 PUSH1 0x1 PUSH1 0x70 SHL SUB DUP10 AND PUSH2 0xF47 DUP5 DUP14 PUSH2 0x1C2A JUMP JUMPDEST PUSH1 0xB SSTORE PUSH2 0x28D0 PUSH1 0x1 PUSH1 0x1 PUSH1 0x70 SHL SUB DUP9 AND PUSH2 0xF47 DUP4 DUP13 PUSH2 0x1C2A JUMP JUMPDEST PUSH1 0xC SSTORE POP POP POP POP JUMPDEST PUSH1 0x8 SLOAD PUSH1 0x40 DUP1 MLOAD PUSH1 0x1 PUSH1 0x1 PUSH1 0x70 SHL SUB DUP1 DUP5 AND DUP3 MSTORE PUSH1 0x1 PUSH1 0x70 SHL SWAP1 SWAP4 DIV SWAP1 SWAP3 AND PUSH1 0x20 DUP4 ADD MSTORE PUSH32 0x1C411E9A96E071241C2F21F7726B17AE89E3CAB4C78BE50E062B03A9FFFBBAD1 SWAP2 ADD PUSH2 0x1F31 JUMP JUMPDEST PUSH1 0x0 DUP2 DUP4 LT PUSH2 0x2933 JUMPI DUP2 PUSH2 0x2935 JUMP JUMPDEST DUP3 JUMPDEST SWAP4 SWAP3 POP POP POP JUMP JUMPDEST PUSH1 0x1 PUSH1 0x1 PUSH1 0xA0 SHL SUB DUP3 AND PUSH1 0x0 SWAP1 DUP2 MSTORE PUSH1 0x1 PUSH1 0x20 MSTORE PUSH1 0x40 SWAP1 KECCAK256 SLOAD PUSH2 0x295F SWAP1 DUP3 PUSH2 0x1FA3 JUMP JUMPDEST PUSH1 0x1 PUSH1 0x1 PUSH1 0xA0 SHL SUB DUP4 AND PUSH1 0x0 SWAP1 DUP2 MSTORE PUSH1 0x1 PUSH1 0x20 MSTORE PUSH1 0x40 DUP2 KECCAK256 SWAP2 SWAP1 SWAP2 SSTORE SLOAD PUSH2 0x2986 SWAP1 DUP3 PUSH2 0x1FA3 JUMP JUMPDEST PUSH1 0x0 SWAP1 DUP2 SSTORE PUSH1 0x40 MLOAD DUP3 DUP2 MSTORE PUSH1 0x1 PUSH1 0x1 PUSH1 0xA0 SHL SUB DUP5 AND SWAP1 PUSH32 0xDDF252AD1BE2C89B69C2B068FC378DAA952BA7F163C4A11628F55A4DF523B3EF SWAP1 PUSH1 0x20 ADD PUSH2 0x25D9 JUMP JUMPDEST PUSH1 0x0 PUSH1 0x20 DUP3 DUP5 SUB SLT ISZERO PUSH2 0x29D8 JUMPI PUSH1 0x0 DUP1 REVERT JUMPDEST DUP2 CALLDATALOAD PUSH2 0x2935 DUP2 PUSH2 0x2E45 JUMP JUMPDEST PUSH1 0x0 PUSH1 0x20 DUP3 DUP5 SUB SLT ISZERO PUSH2 0x29F5 JUMPI PUSH1 0x0 DUP1 REVERT JUMPDEST DUP2 MLOAD PUSH2 0x2935 DUP2 PUSH2 0x2E45 JUMP JUMPDEST PUSH1 0x0 DUP1 PUSH1 0x40 DUP4 DUP6 SUB SLT ISZERO PUSH2 0x2A13 JUMPI PUSH1 0x0 DUP1 REVERT JUMPDEST DUP3 CALLDATALOAD PUSH2 0x2A1E DUP2 PUSH2 0x2E45 JUMP JUMPDEST SWAP2 POP PUSH1 0x20 DUP4 ADD CALLDATALOAD PUSH2 0x2A2E DUP2 PUSH2 0x2E45 JUMP JUMPDEST DUP1 SWAP2 POP POP SWAP3 POP SWAP3 SWAP1 POP JUMP JUMPDEST PUSH1 0x0 DUP1 PUSH1 0x0 PUSH1 0x60 DUP5 DUP7 SUB SLT ISZERO PUSH2 0x2A4E JUMPI PUSH1 0x0 DUP1 REVERT JUMPDEST DUP4 CALLDATALOAD PUSH2 0x2A59 DUP2 PUSH2 0x2E45 JUMP JUMPDEST SWAP3 POP PUSH1 0x20 DUP5 ADD CALLDATALOAD PUSH2 0x2A69 DUP2 PUSH2 0x2E45 JUMP JUMPDEST SWAP3 SWAP6 SWAP3 SWAP5 POP POP POP PUSH1 0x40 SWAP2 SWAP1 SWAP2 ADD CALLDATALOAD SWAP1 JUMP JUMPDEST PUSH1 0x0 DUP1 PUSH1 0x0 DUP1 PUSH1 0x0 DUP1 PUSH1 0x0 PUSH1 0xE0 DUP9 DUP11 SUB SLT ISZERO PUSH2 0x2A95 JUMPI PUSH1 0x0 DUP1 REVERT JUMPDEST DUP8 CALLDATALOAD PUSH2 0x2AA0 DUP2 PUSH2 0x2E45 JUMP JUMPDEST SWAP7 POP PUSH1 0x20 DUP9 ADD CALLDATALOAD PUSH2 0x2AB0 DUP2 PUSH2 0x2E45 JUMP JUMPDEST SWAP6 POP PUSH1 0x40 DUP9 ADD CALLDATALOAD SWAP5 POP PUSH1 0x60 DUP9 ADD CALLDATALOAD SWAP4 POP PUSH1 0x80 DUP9 ADD CALLDATALOAD PUSH1 0xFF DUP2 AND DUP2 EQ PUSH2 0x2AD4 JUMPI PUSH1 0x0 DUP1 REVERT JUMPDEST SWAP7 SWAP10 SWAP6 SWAP9 POP SWAP4 SWAP7 SWAP3 SWAP6 SWAP5 PUSH1 0xA0 DUP5 ADD CALLDATALOAD SWAP5 POP PUSH1 0xC0 SWAP1 SWAP4 ADD CALLDATALOAD SWAP3 SWAP2 POP POP JUMP JUMPDEST PUSH1 0x0 DUP1 PUSH1 0x40 DUP4 DUP6 SUB SLT ISZERO PUSH2 0x2B04 JUMPI PUSH1 0x0 DUP1 REVERT JUMPDEST DUP3 CALLDATALOAD PUSH2 0x2B0F DUP2 PUSH2 0x2E45 JUMP JUMPDEST SWAP5 PUSH1 0x20 SWAP4 SWAP1 SWAP4 ADD CALLDATALOAD SWAP4 POP POP POP JUMP JUMPDEST PUSH1 0x0 PUSH1 0x20 DUP3 DUP5 SUB SLT ISZERO PUSH2 0x2B2F JUMPI PUSH1 0x0 DUP1 REVERT JUMPDEST DUP2 MLOAD DUP1 ISZERO ISZERO DUP2 EQ PUSH2 0x2935 JUMPI PUSH1 0x0 DUP1 REVERT JUMPDEST PUSH1 0x0 PUSH1 0x20 DUP3 DUP5 SUB SLT ISZERO PUSH2 0x2B51 JUMPI PUSH1 0x0 DUP1 REVERT JUMPDEST DUP2 CALLDATALOAD PUSH2 0xFFFF DUP2 AND DUP2 EQ PUSH2 0x2935 JUMPI PUSH1 0x0 DUP1 REVERT JUMPDEST PUSH1 0x0 PUSH1 0x20 DUP3 DUP5 SUB SLT ISZERO PUSH2 0x2B75 JUMPI PUSH1 0x0 DUP1 REVERT JUMPDEST POP MLOAD SWAP2 SWAP1 POP JUMP JUMPDEST PUSH1 0x0 DUP1 PUSH1 0x0 DUP1 PUSH1 0x0 PUSH1 0x80 DUP7 DUP9 SUB SLT ISZERO PUSH2 0x2B94 JUMPI PUSH1 0x0 DUP1 REVERT JUMPDEST DUP6 CALLDATALOAD SWAP5 POP PUSH1 0x20 DUP7 ADD CALLDATALOAD SWAP4 POP PUSH1 0x40 DUP7 ADD CALLDATALOAD PUSH2 0x2BAD DUP2 PUSH2 0x2E45 JUMP JUMPDEST SWAP3 POP PUSH1 0x60 DUP7 ADD CALLDATALOAD PUSH8 0xFFFFFFFFFFFFFFFF DUP1 DUP3 GT ISZERO PUSH2 0x2BCA JUMPI PUSH1 0x0 DUP1 REVERT JUMPDEST DUP2 DUP9 ADD SWAP2 POP DUP9 PUSH1 0x1F DUP4 ADD SLT PUSH2 0x2BDE JUMPI PUSH1 0x0 DUP1 REVERT JUMPDEST DUP2 CALLDATALOAD DUP2 DUP2 GT ISZERO PUSH2 0x2BED JUMPI PUSH1 0x0 DUP1 REVERT JUMPDEST DUP10 PUSH1 0x20 DUP3 DUP6 ADD ADD GT ISZERO PUSH2 0x2BFF JUMPI PUSH1 0x0 DUP1 REVERT JUMPDEST SWAP7 SWAP10 SWAP6 SWAP9 POP SWAP4 SWAP7 POP PUSH1 0x20 ADD SWAP5 SWAP4 SWAP3 POP POP POP JUMP JUMPDEST PUSH1 0x0 DUP3 MLOAD PUSH2 0x2C24 DUP2 DUP5 PUSH1 0x20 DUP8 ADD PUSH2 0x2DBE JUMP JUMPDEST SWAP2 SWAP1 SWAP2 ADD SWAP3 SWAP2 POP POP JUMP JUMPDEST PUSH1 0x1 DUP1 PUSH1 0xA0 SHL SUB DUP7 AND DUP2 MSTORE DUP5 PUSH1 0x20 DUP3 ADD MSTORE DUP4 PUSH1 0x40 DUP3 ADD MSTORE PUSH1 0x80 PUSH1 0x60 DUP3 ADD MSTORE DUP2 PUSH1 0x80 DUP3 ADD MSTORE DUP2 DUP4 PUSH1 0xA0 DUP4 ADD CALLDATACOPY PUSH1 0x0 DUP2 DUP4 ADD PUSH1 0xA0 SWAP1 DUP2 ADD SWAP2 SWAP1 SWAP2 MSTORE PUSH1 0x1F SWAP1 SWAP3 ADD PUSH1 0x1F NOT AND ADD ADD SWAP5 SWAP4 POP POP POP POP JUMP JUMPDEST PUSH1 0x20 DUP2 MSTORE PUSH1 0x0 DUP3 MLOAD DUP1 PUSH1 0x20 DUP5 ADD MSTORE PUSH2 0x2C99 DUP2 PUSH1 0x40 DUP6 ADD PUSH1 0x20 DUP8 ADD PUSH2 0x2DBE JUMP JUMPDEST PUSH1 0x1F ADD PUSH1 0x1F NOT AND SWAP2 SWAP1 SWAP2 ADD PUSH1 0x40 ADD SWAP3 SWAP2 POP POP JUMP JUMPDEST PUSH1 0x20 DUP1 DUP3 MSTORE PUSH1 0x24 SWAP1 DUP3 ADD MSTORE PUSH32 0x506F776572737761703A20494E53554646494349454E545F494E5055545F414D PUSH1 0x40 DUP3 ADD MSTORE PUSH4 0x13D55395 PUSH1 0xE2 SHL PUSH1 0x60 DUP3 ADD MSTORE PUSH1 0x80 ADD SWAP1 JUMP JUMPDEST PUSH1 0x20 DUP1 DUP3 MSTORE PUSH1 0x11 SWAP1 DUP3 ADD MSTORE PUSH17 0x141BDDD95C9CDDD85C0E881313D0D2D151 PUSH1 0x7A SHL PUSH1 0x40 DUP3 ADD MSTORE PUSH1 0x60 ADD SWAP1 JUMP JUMPDEST PUSH1 0x0 DUP3 NOT DUP3 GT ISZERO PUSH2 0x2D2F JUMPI PUSH2 0x2D2F PUSH2 0x2E19 JUMP JUMPDEST POP ADD SWAP1 JUMP JUMPDEST PUSH1 0x0 DUP3 PUSH2 0x2D43 JUMPI PUSH2 0x2D43 PUSH2 0x2E2F JUMP JUMPDEST POP DIV SWAP1 JUMP JUMPDEST PUSH1 0x0 DUP2 PUSH1 0x0 NOT DIV DUP4 GT DUP3 ISZERO ISZERO AND ISZERO PUSH2 0x2D62 JUMPI PUSH2 0x2D62 PUSH2 0x2E19 JUMP JUMPDEST POP MUL SWAP1 JUMP JUMPDEST PUSH1 0x0 PUSH2 0xFFFF DUP4 DUP2 AND SWAP1 DUP4 AND DUP2 DUP2 LT ISZERO PUSH2 0x2D82 JUMPI PUSH2 0x2D82 PUSH2 0x2E19 JUMP JUMPDEST SUB SWAP4 SWAP3 POP POP POP JUMP JUMPDEST PUSH1 0x0 DUP3 DUP3 LT ISZERO PUSH2 0x2D9C JUMPI PUSH2 0x2D9C PUSH2 0x2E19 JUMP JUMPDEST POP SUB SWAP1 JUMP JUMPDEST PUSH1 0x0 PUSH4 0xFFFFFFFF DUP4 DUP2 AND SWAP1 DUP4 AND DUP2 DUP2 LT ISZERO PUSH2 0x2D82 JUMPI PUSH2 0x2D82 PUSH2 0x2E19 JUMP JUMPDEST PUSH1 0x0 JUMPDEST DUP4 DUP2 LT ISZERO PUSH2 0x2DD9 JUMPI DUP2 DUP2 ADD MLOAD DUP4 DUP3 ADD MSTORE PUSH1 0x20 ADD PUSH2 0x2DC1 JUMP JUMPDEST DUP4 DUP2 GT ISZERO PUSH2 0xDA8 JUMPI POP POP PUSH1 0x0 SWAP2 ADD MSTORE JUMP JUMPDEST PUSH1 0x0 PUSH1 0x0 NOT DUP3 EQ ISZERO PUSH2 0x2DFE JUMPI PUSH2 0x2DFE PUSH2 0x2E19 JUMP JUMPDEST POP PUSH1 0x1 ADD SWAP1 JUMP JUMPDEST PUSH1 0x0 DUP3 PUSH2 0x2E14 JUMPI PUSH2 0x2E14 PUSH2 0x2E2F JUMP JUMPDEST POP MOD SWAP1 JUMP JUMPDEST PUSH4 0x4E487B71 PUSH1 0xE0 SHL PUSH1 0x0 MSTORE PUSH1 0x11 PUSH1 0x4 MSTORE PUSH1 0x24 PUSH1 0x0 REVERT JUMPDEST PUSH4 0x4E487B71 PUSH1 0xE0 SHL PUSH1 0x0 MSTORE PUSH1 0x12 PUSH1 0x4 MSTORE PUSH1 0x24 PUSH1 0x0 REVERT JUMPDEST PUSH1 0x1 PUSH1 0x1 PUSH1 0xA0 SHL SUB DUP2 AND DUP2 EQ PUSH2 0x2E5A JUMPI PUSH1 0x0 DUP1 REVERT JUMPDEST POP JUMP INVALID LOG2 PUSH5 0x6970667358 0x22 SLT KECCAK256 EXTCODESIZE 0x27 SDIV LT 0xC2 NOT JUMP MUL 0x2E SIGNEXTEND SWAP6 DUP5 PUSH2 0xB063 0xD7 PUSH32 0x721B72103B607E395BC61870FA7D1E64736F6C63430008060033000000000000 "
		},
		"gasEstimates": {
			"creation": {
				"codeDepositCost": "2384600",
				"executionCost": "71326",
				"totalCost": "2455926"
			},
			"external": {
				"DOMAIN_SEPARATOR()": "2385",
				"MINIMUM_LIQUIDITY()": "306",
				"PERMIT_TYPEHASH()": "241",
				"allowance(address,address)": "infinite",
				"approve(address,uint256)": "24568",
				"balanceOf(address)": "2559",
				"burn(address)": "infinite",
				"decimals()": "272",
				"factory()": "2426",
				"getBalances()": "8682",
				"getPrices()": "4486",
				"getR()": "2400",
				"getReserves()": "2571",
				"initialize(address,address)": "infinite",
				"kLast()": "2385",
				"mint(address)": "infinite",
				"name()": "infinite",
				"nonces(address)": "2625",
				"permit(address,address,uint256,uint256,uint8,bytes32,bytes32)": "infinite",
				"price0CumulativeLast()": "2340",
				"price1CumulativeLast()": "2362",
				"setR(uint16)": "infinite",
				"skim(address)": "infinite",
				"swap(uint256,uint256,address,bytes)": "infinite",
				"symbol()": "infinite",
				"sync()": "infinite",
				"token0()": "2405",
				"token1()": "2448",
				"totalSupply()": "2385",
				"transfer(address,uint256)": "infinite",
				"transferFrom(address,address,uint256)": "infinite",
				"updateVirtualBalances()": "infinite"
			},
			"internal": {
				"_mintFee(uint112,uint112)": "infinite",
				"_safeTransfer(address,address,uint256)": "infinite",
				"_update(uint256,uint256,uint112,uint112)": "infinite",
				"_updateAfterSwap(uint256,uint256,uint256,uint256,uint256,uint256)": "infinite",
				"_updateAtTheFirstCallInEachBlock(uint112,uint112,uint32)": "infinite",
				"_updateAtTheInitialBlock(uint256,uint256)": "infinite",
				"_verifyInputOutput(struct PowerswapPair.verifyData memory,uint256)": "infinite"
			}
		},
		"methodIdentifiers": {
			"DOMAIN_SEPARATOR()": "3644e515",
			"MINIMUM_LIQUIDITY()": "ba9a7a56",
			"PERMIT_TYPEHASH()": "30adf81f",
			"allowance(address,address)": "dd62ed3e",
			"approve(address,uint256)": "095ea7b3",
			"balanceOf(address)": "70a08231",
			"burn(address)": "89afcb44",
			"decimals()": "313ce567",
			"factory()": "c45a0155",
			"getBalances()": "00113e08",
			"getPrices()": "bd9a548b",
			"getR()": "f637b632",
			"getReserves()": "0902f1ac",
			"initialize(address,address)": "485cc955",
			"kLast()": "7464fc3d",
			"mint(address)": "6a627842",
			"name()": "06fdde03",
			"nonces(address)": "7ecebe00",
			"permit(address,address,uint256,uint256,uint8,bytes32,bytes32)": "d505accf",
			"price0CumulativeLast()": "5909c0d5",
			"price1CumulativeLast()": "5a3d5493",
			"setR(uint16)": "734ffd15",
			"skim(address)": "bc25cf77",
			"swap(uint256,uint256,address,bytes)": "022c0d9f",
			"symbol()": "95d89b41",
			"sync()": "fff6cae9",
			"token0()": "0dfe1681",
			"token1()": "d21220a7",
			"totalSupply()": "18160ddd",
			"transfer(address,uint256)": "a9059cbb",
			"transferFrom(address,address,uint256)": "23b872dd",
			"updateVirtualBalances()": "6431b81a"
		}
	},
	"abi": [
		{
			"inputs": [],
			"stateMutability": "nonpayable",
			"type": "constructor"
		},
		{
			"anonymous": false,
			"inputs": [
				{
					"indexed": true,
					"internalType": "address",
					"name": "owner",
					"type": "address"
				},
				{
					"indexed": true,
					"internalType": "address",
					"name": "spender",
					"type": "address"
				},
				{
					"indexed": false,
					"internalType": "uint256",
					"name": "value",
					"type": "uint256"
				}
			],
			"name": "Approval",
			"type": "event"
		},
		{
			"anonymous": false,
			"inputs": [
				{
					"indexed": true,
					"internalType": "address",
					"name": "sender",
					"type": "address"
				},
				{
					"indexed": false,
					"internalType": "uint256",
					"name": "amount0",
					"type": "uint256"
				},
				{
					"indexed": false,
					"internalType": "uint256",
					"name": "amount1",
					"type": "uint256"
				},
				{
					"indexed": true,
					"internalType": "address",
					"name": "to",
					"type": "address"
				}
			],
			"name": "Burn",
			"type": "event"
		},
		{
			"anonymous": false,
			"inputs": [
				{
					"indexed": true,
					"internalType": "address",
					"name": "sender",
					"type": "address"
				},
				{
					"indexed": false,
					"internalType": "uint256",
					"name": "amount0",
					"type": "uint256"
				},
				{
					"indexed": false,
					"internalType": "uint256",
					"name": "amount1",
					"type": "uint256"
				}
			],
			"name": "Mint",
			"type": "event"
		},
		{
			"anonymous": false,
			"inputs": [
				{
					"indexed": true,
					"internalType": "address",
					"name": "sender",
					"type": "address"
				},
				{
					"indexed": false,
					"internalType": "uint256",
					"name": "amount0In",
					"type": "uint256"
				},
				{
					"indexed": false,
					"internalType": "uint256",
					"name": "amount1In",
					"type": "uint256"
				},
				{
					"indexed": false,
					"internalType": "uint256",
					"name": "amount0Out",
					"type": "uint256"
				},
				{
					"indexed": false,
					"internalType": "uint256",
					"name": "amount1Out",
					"type": "uint256"
				},
				{
					"indexed": true,
					"internalType": "address",
					"name": "to",
					"type": "address"
				}
			],
			"name": "Swap",
			"type": "event"
		},
		{
			"anonymous": false,
			"inputs": [
				{
					"indexed": false,
					"internalType": "uint112",
					"name": "reserve0",
					"type": "uint112"
				},
				{
					"indexed": false,
					"internalType": "uint112",
					"name": "reserve1",
					"type": "uint112"
				}
			],
			"name": "Sync",
			"type": "event"
		},
		{
			"anonymous": false,
			"inputs": [
				{
					"indexed": true,
					"internalType": "address",
					"name": "from",
					"type": "address"
				},
				{
					"indexed": true,
					"internalType": "address",
					"name": "to",
					"type": "address"
				},
				{
					"indexed": false,
					"internalType": "uint256",
					"name": "value",
					"type": "uint256"
				}
			],
			"name": "Transfer",
			"type": "event"
		},
		{
			"inputs": [],
			"name": "DOMAIN_SEPARATOR",
			"outputs": [
				{
					"internalType": "bytes32",
					"name": "",
					"type": "bytes32"
				}
			],
			"stateMutability": "view",
			"type": "function"
		},
		{
			"inputs": [],
			"name": "MINIMUM_LIQUIDITY",
			"outputs": [
				{
					"internalType": "uint256",
					"name": "",
					"type": "uint256"
				}
			],
			"stateMutability": "view",
			"type": "function"
		},
		{
			"inputs": [],
			"name": "PERMIT_TYPEHASH",
			"outputs": [
				{
					"internalType": "bytes32",
					"name": "",
					"type": "bytes32"
				}
			],
			"stateMutability": "view",
			"type": "function"
		},
		{
			"inputs": [
				{
					"internalType": "address",
					"name": "",
					"type": "address"
				},
				{
					"internalType": "address",
					"name": "",
					"type": "address"
				}
			],
			"name": "allowance",
			"outputs": [
				{
					"internalType": "uint256",
					"name": "",
					"type": "uint256"
				}
			],
			"stateMutability": "view",
			"type": "function"
		},
		{
			"inputs": [
				{
					"internalType": "address",
					"name": "spender",
					"type": "address"
				},
				{
					"internalType": "uint256",
					"name": "value",
					"type": "uint256"
				}
			],
			"name": "approve",
			"outputs": [
				{
					"internalType": "bool",
					"name": "",
					"type": "bool"
				}
			],
			"stateMutability": "nonpayable",
			"type": "function"
		},
		{
			"inputs": [
				{
					"internalType": "address",
					"name": "",
					"type": "address"
				}
			],
			"name": "balanceOf",
			"outputs": [
				{
					"internalType": "uint256",
					"name": "",
					"type": "uint256"
				}
			],
			"stateMutability": "view",
			"type": "function"
		},
		{
			"inputs": [
				{
					"internalType": "address",
					"name": "to",
					"type": "address"
				}
			],
			"name": "burn",
			"outputs": [
				{
					"internalType": "uint256",
					"name": "amount0",
					"type": "uint256"
				},
				{
					"internalType": "uint256",
					"name": "amount1",
					"type": "uint256"
				}
			],
			"stateMutability": "nonpayable",
			"type": "function"
		},
		{
			"inputs": [],
			"name": "decimals",
			"outputs": [
				{
					"internalType": "uint8",
					"name": "",
					"type": "uint8"
				}
			],
			"stateMutability": "view",
			"type": "function"
		},
		{
			"inputs": [],
			"name": "factory",
			"outputs": [
				{
					"internalType": "address",
					"name": "",
					"type": "address"
				}
			],
			"stateMutability": "view",
			"type": "function"
		},
		{
			"inputs": [],
			"name": "getBalances",
			"outputs": [
				{
					"internalType": "uint256",
					"name": "_balanceBuy0",
					"type": "uint256"
				},
				{
					"internalType": "uint256",
					"name": "_balanceBuy1",
					"type": "uint256"
				},
				{
					"internalType": "uint256",
					"name": "_balanceSell0",
					"type": "uint256"
				},
				{
					"internalType": "uint256",
					"name": "_balanceSell1",
					"type": "uint256"
				}
			],
			"stateMutability": "view",
			"type": "function"
		},
		{
			"inputs": [],
			"name": "getPrices",
			"outputs": [
				{
					"internalType": "uint256",
					"name": "_priceBuy",
					"type": "uint256"
				},
				{
					"internalType": "uint256",
					"name": "_priceSell",
					"type": "uint256"
				}
			],
			"stateMutability": "view",
			"type": "function"
		},
		{
			"inputs": [],
			"name": "getR",
			"outputs": [
				{
					"internalType": "uint16",
					"name": "_R",
					"type": "uint16"
				}
			],
			"stateMutability": "view",
			"type": "function"
		},
		{
			"inputs": [],
			"name": "getReserves",
			"outputs": [
				{
					"internalType": "uint112",
					"name": "_reserve0",
					"type": "uint112"
				},
				{
					"internalType": "uint112",
					"name": "_reserve1",
					"type": "uint112"
				},
				{
					"internalType": "uint32",
					"name": "_blockTimestampLast",
					"type": "uint32"
				}
			],
			"stateMutability": "view",
			"type": "function"
		},
		{
			"inputs": [
				{
					"internalType": "address",
					"name": "_token0",
					"type": "address"
				},
				{
					"internalType": "address",
					"name": "_token1",
					"type": "address"
				}
			],
			"name": "initialize",
			"outputs": [],
			"stateMutability": "nonpayable",
			"type": "function"
		},
		{
			"inputs": [],
			"name": "kLast",
			"outputs": [
				{
					"internalType": "uint256",
					"name": "",
					"type": "uint256"
				}
			],
			"stateMutability": "view",
			"type": "function"
		},
		{
			"inputs": [
				{
					"internalType": "address",
					"name": "to",
					"type": "address"
				}
			],
			"name": "mint",
			"outputs": [
				{
					"internalType": "uint256",
					"name": "liquidity",
					"type": "uint256"
				}
			],
			"stateMutability": "nonpayable",
			"type": "function"
		},
		{
			"inputs": [],
			"name": "name",
			"outputs": [
				{
					"internalType": "string",
					"name": "",
					"type": "string"
				}
			],
			"stateMutability": "view",
			"type": "function"
		},
		{
			"inputs": [
				{
					"internalType": "address",
					"name": "",
					"type": "address"
				}
			],
			"name": "nonces",
			"outputs": [
				{
					"internalType": "uint256",
					"name": "",
					"type": "uint256"
				}
			],
			"stateMutability": "view",
			"type": "function"
		},
		{
			"inputs": [
				{
					"internalType": "address",
					"name": "owner",
					"type": "address"
				},
				{
					"internalType": "address",
					"name": "spender",
					"type": "address"
				},
				{
					"internalType": "uint256",
					"name": "value",
					"type": "uint256"
				},
				{
					"internalType": "uint256",
					"name": "deadline",
					"type": "uint256"
				},
				{
					"internalType": "uint8",
					"name": "v",
					"type": "uint8"
				},
				{
					"internalType": "bytes32",
					"name": "r",
					"type": "bytes32"
				},
				{
					"internalType": "bytes32",
					"name": "s",
					"type": "bytes32"
				}
			],
			"name": "permit",
			"outputs": [],
			"stateMutability": "nonpayable",
			"type": "function"
		},
		{
			"inputs": [],
			"name": "price0CumulativeLast",
			"outputs": [
				{
					"internalType": "uint256",
					"name": "",
					"type": "uint256"
				}
			],
			"stateMutability": "view",
			"type": "function"
		},
		{
			"inputs": [],
			"name": "price1CumulativeLast",
			"outputs": [
				{
					"internalType": "uint256",
					"name": "",
					"type": "uint256"
				}
			],
			"stateMutability": "view",
			"type": "function"
		},
		{
			"inputs": [
				{
					"internalType": "uint16",
					"name": "_R",
					"type": "uint16"
				}
			],
			"name": "setR",
			"outputs": [],
			"stateMutability": "nonpayable",
			"type": "function"
		},
		{
			"inputs": [
				{
					"internalType": "address",
					"name": "to",
					"type": "address"
				}
			],
			"name": "skim",
			"outputs": [],
			"stateMutability": "nonpayable",
			"type": "function"
		},
		{
			"inputs": [
				{
					"internalType": "uint256",
					"name": "amount0Out",
					"type": "uint256"
				},
				{
					"internalType": "uint256",
					"name": "amount1Out",
					"type": "uint256"
				},
				{
					"internalType": "address",
					"name": "to",
					"type": "address"
				},
				{
					"internalType": "bytes",
					"name": "data",
					"type": "bytes"
				}
			],
			"name": "swap",
			"outputs": [],
			"stateMutability": "nonpayable",
			"type": "function"
		},
		{
			"inputs": [],
			"name": "symbol",
			"outputs": [
				{
					"internalType": "string",
					"name": "",
					"type": "string"
				}
			],
			"stateMutability": "view",
			"type": "function"
		},
		{
			"inputs": [],
			"name": "sync",
			"outputs": [],
			"stateMutability": "nonpayable",
			"type": "function"
		},
		{
			"inputs": [],
			"name": "token0",
			"outputs": [
				{
					"internalType": "address",
					"name": "",
					"type": "address"
				}
			],
			"stateMutability": "view",
			"type": "function"
		},
		{
			"inputs": [],
			"name": "token1",
			"outputs": [
				{
					"internalType": "address",
					"name": "",
					"type": "address"
				}
			],
			"stateMutability": "view",
			"type": "function"
		},
		{
			"inputs": [],
			"name": "totalSupply",
			"outputs": [
				{
					"internalType": "uint256",
					"name": "",
					"type": "uint256"
				}
			],
			"stateMutability": "view",
			"type": "function"
		},
		{
			"inputs": [
				{
					"internalType": "address",
					"name": "to",
					"type": "address"
				},
				{
					"internalType": "uint256",
					"name": "value",
					"type": "uint256"
				}
			],
			"name": "transfer",
			"outputs": [
				{
					"internalType": "bool",
					"name": "",
					"type": "bool"
				}
			],
			"stateMutability": "nonpayable",
			"type": "function"
		},
		{
			"inputs": [
				{
					"internalType": "address",
					"name": "from",
					"type": "address"
				},
				{
					"internalType": "address",
					"name": "to",
					"type": "address"
				},
				{
					"internalType": "uint256",
					"name": "value",
					"type": "uint256"
				}
			],
			"name": "transferFrom",
			"outputs": [
				{
					"internalType": "bool",
					"name": "",
					"type": "bool"
				}
			],
			"stateMutability": "nonpayable",
			"type": "function"
		},
		{
			"inputs": [],
			"name": "updateVirtualBalances",
			"outputs": [],
			"stateMutability": "nonpayable",
			"type": "function"
		}
	]
}